{
  "contractName": "VeggieContract",
  "abi": [
    {
      "inputs": [],
      "payable": false,
      "stateMutability": "nonpayable",
      "type": "constructor"
    },
    {
      "constant": true,
      "inputs": [],
      "name": "id",
      "outputs": [
        {
          "internalType": "uint256",
          "name": "",
          "type": "uint256"
        }
      ],
      "payable": false,
      "stateMutability": "view",
      "type": "function"
    },
    {
      "constant": true,
      "inputs": [
        {
          "internalType": "uint256",
          "name": "",
          "type": "uint256"
        }
      ],
      "name": "veggies",
      "outputs": [
        {
          "internalType": "uint256",
          "name": "id",
          "type": "uint256"
        },
        {
          "internalType": "uint256",
          "name": "created",
          "type": "uint256"
        },
        {
          "internalType": "string",
          "name": "consignment",
          "type": "string"
        },
        {
          "internalType": "string",
          "name": "comment",
          "type": "string"
        },
        {
          "internalType": "string",
          "name": "stage",
          "type": "string"
        }
      ],
      "payable": false,
      "stateMutability": "view",
      "type": "function"
    },
    {
      "constant": false,
      "inputs": [
        {
          "internalType": "string",
          "name": "_consignment",
          "type": "string"
        },
        {
          "internalType": "string",
          "name": "_comment",
          "type": "string"
        },
        {
          "internalType": "string",
          "name": "_stage",
          "type": "string"
        }
      ],
      "name": "createNewVieggiesBlock",
      "outputs": [],
      "payable": false,
      "stateMutability": "nonpayable",
      "type": "function"
    }
  ],
  "bytecode": "0x608060405234801561001057600080fd5b506100c16040518060400160405280600681526020017f636172726f7400000000000000000000000000000000000000000000000000008152506040518060400160405280600481526020017f6e696365000000000000000000000000000000000000000000000000000000008152506040518060400160405280600481526020017f6661726d000000000000000000000000000000000000000000000000000000008152506100c660201b60201c565b61022c565b60008081548092919060010191905055506040518060a00160405280600054815260200142815260200184815260200183815260200182815250600160008054815260200190815260200160002060008201518160000155602082015181600101556040820151816002019080519060200190610144929190610187565b506060820151816003019080519060200190610161929190610187565b50608082015181600401908051906020019061017e929190610187565b50905050505050565b828054600181600116156101000203166002900490600052602060002090601f016020900481019282601f106101c857805160ff19168380011785556101f6565b828001600101855582156101f6579182015b828111156101f55782518255916020019190600101906101da565b5b5090506102039190610207565b5090565b61022991905b8082111561022557600081600090555060010161020d565b5090565b90565b6107798061023b6000396000f3fe608060405234801561001057600080fd5b50600436106100415760003560e01c806313ded783146100465780636a7884f91461022f578063af640d0f146103bc575b600080fd5b61022d6004803603606081101561005c57600080fd5b810190808035906020019064010000000081111561007957600080fd5b82018360208201111561008b57600080fd5b803590602001918460018302840111640100000000831117156100ad57600080fd5b91908080601f016020809104026020016040519081016040528093929190818152602001838380828437600081840152601f19601f8201169050808301925050505050505091929192908035906020019064010000000081111561011057600080fd5b82018360208201111561012257600080fd5b8035906020019184600183028401116401000000008311171561014457600080fd5b91908080601f016020809104026020016040519081016040528093929190818152602001838380828437600081840152601f19601f820116905080830192505050505050509192919290803590602001906401000000008111156101a757600080fd5b8201836020820111156101b957600080fd5b803590602001918460018302840111640100000000831117156101db57600080fd5b91908080601f016020809104026020016040519081016040528093929190818152602001838380828437600081840152601f19601f8201169050808301925050505050505091929192905050506103da565b005b61025b6004803603602081101561024557600080fd5b810190808035906020019092919050505061049b565b60405180868152602001858152602001806020018060200180602001848103845287818151815260200191508051906020019080838360005b838110156102af578082015181840152602081019050610294565b50505050905090810190601f1680156102dc5780820380516001836020036101000a031916815260200191505b50848103835286818151815260200191508051906020019080838360005b838110156103155780820151818401526020810190506102fa565b50505050905090810190601f1680156103425780820380516001836020036101000a031916815260200191505b50848103825285818151815260200191508051906020019080838360005b8381101561037b578082015181840152602081019050610360565b50505050905090810190601f1680156103a85780820380516001836020036101000a031916815260200191505b509850505050505050505060405180910390f35b6103c4610699565b6040518082815260200191505060405180910390f35b60008081548092919060010191905055506040518060a0016040528060005481526020014281526020018481526020018381526020018281525060016000805481526020019081526020016000206000820151816000015560208201518160010155604082015181600201908051906020019061045892919061069f565b50606082015181600301908051906020019061047592919061069f565b50608082015181600401908051906020019061049292919061069f565b50905050505050565b6001602052806000526040600020600091509050806000015490806001015490806002018054600181600116156101000203166002900480601f0160208091040260200160405190810160405280929190818152602001828054600181600116156101000203166002900480156105535780601f1061052857610100808354040283529160200191610553565b820191906000526020600020905b81548152906001019060200180831161053657829003601f168201915b505050505090806003018054600181600116156101000203166002900480601f0160208091040260200160405190810160405280929190818152602001828054600181600116156101000203166002900480156105f15780601f106105c6576101008083540402835291602001916105f1565b820191906000526020600020905b8154815290600101906020018083116105d457829003601f168201915b505050505090806004018054600181600116156101000203166002900480601f01602080910402602001604051908101604052809291908181526020018280546001816001161561010002031660029004801561068f5780601f106106645761010080835404028352916020019161068f565b820191906000526020600020905b81548152906001019060200180831161067257829003601f168201915b5050505050905085565b60005481565b828054600181600116156101000203166002900490600052602060002090601f016020900481019282601f106106e057805160ff191683800117855561070e565b8280016001018555821561070e579182015b8281111561070d5782518255916020019190600101906106f2565b5b50905061071b919061071f565b5090565b61074191905b8082111561073d576000816000905550600101610725565b5090565b9056fea265627a7a723158200c83613b89e0bc613c13969ab8ad9062abdffe19f56d55f12cd09afda03ccad064736f6c63430005100032",
  "source": "pragma solidity >=0.4.22 <0.9.0;\n\ncontract VeggieContract {\n  uint public id;\n\n  constructor() public {\n    createNewVieggiesBlock('carrot', 'nice', 'farm');\n  }\n\n  struct Veggie {\n    uint id;\n    uint256 created;\n    string consignment;\n    string comment;\n    string stage;\n  }\n\n  mapping(uint => Veggie) public veggies;\n\n  function createNewVieggiesBlock (string memory _consignment, string memory _comment, string memory _stage) public {\n    id++;\n    veggies[id] = Veggie(id, block.timestamp, _consignment, _comment, _stage);\n  }\n}",
  "sourcePath": "/home/thanhnt26/Desktop/blockchain-and-vegetable-production-supply-chain/blockchain/contracts/VeggieContract.sol",
  "compiler": {
    "name": "solc",
    "version": "0.5.16+commit.9c3226ce.Emscripten.clang"
  },
  "schemaVersion": "3.4.13",
  "updatedAt": "2023-04-10T08:22:12.992Z",
  "devdoc": {
    "methods": {}
  },
  "userdoc": {
    "methods": {}
  }
}