{
  "contractName": "VeggieContract",
  "abi": [
    {
      "constant": true,
      "inputs": [],
      "name": "id",
      "outputs": [
        {
          "name": "",
          "type": "uint256"
        }
      ],
      "payable": false,
      "stateMutability": "view",
      "type": "function",
      "signature": "0xaf640d0f"
    },
    {
      "inputs": [],
      "payable": false,
      "stateMutability": "nonpayable",
      "type": "constructor",
      "signature": "constructor"
    },
    {
      "constant": true,
      "inputs": [
        {
          "name": "a",
          "type": "string"
        },
        {
          "name": "b",
          "type": "string"
        }
      ],
      "name": "isEqualStrings",
      "outputs": [
        {
          "name": "",
          "type": "bool"
        }
      ],
      "payable": false,
      "stateMutability": "pure",
      "type": "function",
      "signature": "0x4ed648a3"
    },
    {
      "constant": true,
      "inputs": [],
      "name": "getRandomConsignment",
      "outputs": [
        {
          "name": "",
          "type": "string"
        }
      ],
      "payable": false,
      "stateMutability": "view",
      "type": "function",
      "signature": "0xfcb6d1eb"
    },
    {
      "constant": false,
      "inputs": [
        {
          "name": "_to",
          "type": "address"
        },
        {
          "name": "_comment",
          "type": "string"
        },
        {
          "name": "_stage",
          "type": "string"
        }
      ],
      "name": "createNewVieggiesBlock",
      "outputs": [],
      "payable": false,
      "stateMutability": "nonpayable",
      "type": "function",
      "signature": "0xc7a82bc3"
    },
    {
      "constant": true,
      "inputs": [
        {
          "name": "_stage",
          "type": "string"
        }
      ],
      "name": "getVeggieBlocksWithStage",
      "outputs": [
        {
          "components": [
            {
              "name": "id",
              "type": "uint256"
            },
            {
              "name": "created",
              "type": "uint256"
            },
            {
              "name": "consignment",
              "type": "string"
            },
            {
              "name": "from",
              "type": "address"
            },
            {
              "name": "to",
              "type": "address"
            },
            {
              "name": "stage",
              "type": "string"
            },
            {
              "name": "comment",
              "type": "string"
            }
          ],
          "name": "",
          "type": "tuple[]"
        }
      ],
      "payable": false,
      "stateMutability": "view",
      "type": "function",
      "signature": "0x7283e120"
    }
  ],
  "bytecode": "0x608060405234801561001057600080fd5b5060008081905550611387806100276000396000f3fe60806040526004361061006d576000357c0100000000000000000000000000000000000000000000000000000000900463ffffffff1680634ed648a3146100725780637283e120146100af578063af640d0f146100ec578063c7a82bc314610117578063fcb6d1eb14610140575b600080fd5b34801561007e57600080fd5b5061009960048036036100949190810190610f75565b61016b565b6040516100a691906111b4565b60405180910390f35b3480156100bb57600080fd5b506100d660048036036100d19190810190610f34565b61025e565b6040516100e39190611192565b60405180910390f35b3480156100f857600080fd5b5061010161076c565b60405161010e91906111f1565b60405180910390f35b34801561012357600080fd5b5061013e60048036036101399190810190610eb5565b610772565b005b34801561014c57600080fd5b50610155610bf8565b60405161016291906111cf565b60405180910390f35b6000816040516020018082805190602001908083835b6020831015156101a65780518252602082019150602081019050602083039250610181565b6001836020036101000a03801982511681845116808217855250505050505090500191505060405160208183030381529060405280519060200120836040516020018082805190602001908083835b60208310151561021a57805182526020820191506020810190506020830392506101f5565b6001836020036101000a0380198251168184511680821785525050505050509050019150506040516020818303038152906040528051906020012014905092915050565b6060600080905060008090506000600190505b6001600054018110156103515761033685600160008481526020019081526020016000206005018054600181600116156101000203166002900480601f01602080910402602001604051908101604052809291908181526020018280546001816001161561010002031660029004801561032c5780601f106103015761010080835404028352916020019161032c565b820191906000526020600020905b81548152906001019060200180831161030f57829003601f168201915b505050505061016b565b156103445782806001019350505b8080600101915050610271565b5060608261ffff1660405190808252806020026020018201604052801561039257816020015b61037f610d3c565b8152602001906001900390816103775790505b5090506000600190505b6001600054018110156107605761046186600160008481526020019081526020016000206005018054600181600116156101000203166002900480601f0160208091040260200160405190810160405280929190818152602001828054600181600116156101000203166002900480156104575780601f1061042c57610100808354040283529160200191610457565b820191906000526020600020905b81548152906001019060200180831161043a57829003601f168201915b505050505061016b565b15610753576001600082815260200190815260200160002060e060405190810160405290816000820154815260200160018201548152602001600282018054600181600116156101000203166002900480601f0160208091040260200160405190810160405280929190818152602001828054600181600116156101000203166002900480156105325780601f1061050757610100808354040283529160200191610532565b820191906000526020600020905b81548152906001019060200180831161051557829003601f168201915b505050505081526020016003820160009054906101000a900473ffffffffffffffffffffffffffffffffffffffff1673ffffffffffffffffffffffffffffffffffffffff1673ffffffffffffffffffffffffffffffffffffffff1681526020016004820160009054906101000a900473ffffffffffffffffffffffffffffffffffffffff1673ffffffffffffffffffffffffffffffffffffffff1673ffffffffffffffffffffffffffffffffffffffff168152602001600582018054600181600116156101000203166002900480601f0160208091040260200160405190810160405280929190818152602001828054600181600116156101000203166002900480156106805780601f1061065557610100808354040283529160200191610680565b820191906000526020600020905b81548152906001019060200180831161066357829003601f168201915b50505050508152602001600682018054600181600116156101000203166002900480601f0160208091040260200160405190810160405280929190818152602001828054600181600116156101000203166002900480156107225780601f106106f757610100808354040283529160200191610722565b820191906000526020600020905b81548152906001019060200180831161070557829003601f168201915b505050505081525050828461ffff1681518110151561073d57fe5b9060200190602002018190525082806001019350505b808060010191505061039c565b50809350505050919050565b60005481565b60008081548092919060010191905055506107c2816040805190810160405280600681526020017f4661726d6572000000000000000000000000000000000000000000000000000081525061016b565b156109455760e06040519081016040528060005481526020014281526020016107e9610bf8565b81526020013373ffffffffffffffffffffffffffffffffffffffff1681526020018473ffffffffffffffffffffffffffffffffffffffff16815260200182815260200183815250600160008054815260200190815260200160002060008201518160000155602082015181600101556040820151816002019080519060200190610874929190610da6565b5060608201518160030160006101000a81548173ffffffffffffffffffffffffffffffffffffffff021916908373ffffffffffffffffffffffffffffffffffffffff16021790555060808201518160040160006101000a81548173ffffffffffffffffffffffffffffffffffffffff021916908373ffffffffffffffffffffffffffffffffffffffff16021790555060a082015181600501908051906020019061091f929190610da6565b5060c082015181600601908051906020019061093c929190610da6565b50905050610bf3565b6000600190505b600160005401811015610bf1576001600082815260200190815260200160002060040160009054906101000a900473ffffffffffffffffffffffffffffffffffffffff1673ffffffffffffffffffffffffffffffffffffffff163373ffffffffffffffffffffffffffffffffffffffff161415610be45760e0604051908101604052806000548152602001428152602001600160008481526020019081526020016000206002018054600181600116156101000203166002900480601f016020809104026020016040519081016040528092919081815260200182805460018160011615610100020316600290048015610a875780601f10610a5c57610100808354040283529160200191610a87565b820191906000526020600020905b815481529060010190602001808311610a6a57829003601f168201915b505050505081526020013373ffffffffffffffffffffffffffffffffffffffff1681526020018573ffffffffffffffffffffffffffffffffffffffff16815260200183815260200184815250600160008054815260200190815260200160002060008201518160000155602082015181600101556040820151816002019080519060200190610b17929190610da6565b5060608201518160030160006101000a81548173ffffffffffffffffffffffffffffffffffffffff021916908373ffffffffffffffffffffffffffffffffffffffff16021790555060808201518160040160006101000a81548173ffffffffffffffffffffffffffffffffffffffff021916908373ffffffffffffffffffffffffffffffffffffffff16021790555060a0820151816005019080519060200190610bc2929190610da6565b5060c0820151816006019080519060200190610bdf929190610da6565b509050505b808060010191505061094c565b505b505050565b60608060206040519080825280601f01601f191660200182016040528015610c2f5781602001600182028038833980820191505090505b50905060004233604051602001808381526020018273ffffffffffffffffffffffffffffffffffffffff1673ffffffffffffffffffffffffffffffffffffffff166c01000000000000000000000000028152601401925050506040516020818303038152906040528051906020012060019004905060008090505b6020811015610d335760ff82167f0100000000000000000000000000000000000000000000000000000000000000028382815181101515610ce757fe5b9060200101907effffffffffffffffffffffffffffffffffffffffffffffffffffffffffffff1916908160001a905350600882908060020a820491505091508080600101915050610caa565b50819250505090565b60e060405190810160405280600081526020016000815260200160608152602001600073ffffffffffffffffffffffffffffffffffffffff168152602001600073ffffffffffffffffffffffffffffffffffffffff16815260200160608152602001606081525090565b828054600181600116156101000203166002900490600052602060002090601f016020900481019282601f10610de757805160ff1916838001178555610e15565b82800160010185558215610e15579182015b82811115610e14578251825591602001919060010190610df9565b5b509050610e229190610e26565b5090565b610e4891905b80821115610e44576000816000905550600101610e2c565b5090565b90565b6000610e5782356112e8565b905092915050565b600082601f8301121515610e7257600080fd5b8135610e85610e8082611239565b61120c565b91508082526020830160208301858383011115610ea157600080fd5b610eac8382846112fa565b50505092915050565b600080600060608486031215610eca57600080fd5b6000610ed886828701610e4b565b935050602084013567ffffffffffffffff811115610ef557600080fd5b610f0186828701610e5f565b925050604084013567ffffffffffffffff811115610f1e57600080fd5b610f2a86828701610e5f565b9150509250925092565b600060208284031215610f4657600080fd5b600082013567ffffffffffffffff811115610f6057600080fd5b610f6c84828501610e5f565b91505092915050565b60008060408385031215610f8857600080fd5b600083013567ffffffffffffffff811115610fa257600080fd5b610fae85828601610e5f565b925050602083013567ffffffffffffffff811115610fcb57600080fd5b610fd785828601610e5f565b9150509250929050565b610fea816112a0565b82525050565b6000610ffb82611272565b8084526020840193508360208202850161101485611265565b60005b8481101561104d57838303885261102f8383516110d9565b925061103a82611293565b9150602088019750600181019050611017565b508196508694505050505092915050565b611067816112b2565b82525050565b600061107882611288565b80845261108c816020860160208601611309565b6110958161133c565b602085010191505092915050565b60006110ae8261127d565b8084526110c2816020860160208601611309565b6110cb8161133c565b602085010191505092915050565b600060e0830160008301516110f16000860182611183565b5060208301516111046020860182611183565b506040830151848203604086015261111c82826110a3565b91505060608301516111316060860182610fe1565b5060808301516111446080860182610fe1565b5060a083015184820360a086015261115c82826110a3565b91505060c083015184820360c086015261117682826110a3565b9150508091505092915050565b61118c816112de565b82525050565b600060208201905081810360008301526111ac8184610ff0565b905092915050565b60006020820190506111c9600083018461105e565b92915050565b600060208201905081810360008301526111e9818461106d565b905092915050565b60006020820190506112066000830184611183565b92915050565b6000604051905081810181811067ffffffffffffffff8211171561122f57600080fd5b8060405250919050565b600067ffffffffffffffff82111561125057600080fd5b601f19601f8301169050602081019050919050565b6000602082019050919050565b600081519050919050565b600081519050919050565b600081519050919050565b6000602082019050919050565b60006112ab826112be565b9050919050565b60008115159050919050565b600073ffffffffffffffffffffffffffffffffffffffff82169050919050565b6000819050919050565b60006112f3826112be565b9050919050565b82818337600083830152505050565b60005b8381101561132757808201518184015260208101905061130c565b83811115611336576000848401525b50505050565b6000601f19601f830116905091905056fea265627a7a7230582004045d371ad2787bd320e65823f560e7fbd6c0ca7cc2ea55157bcc17f4115b786c6578706572696d656e74616cf50037",
  "source": "pragma solidity >=0.4.22 <0.9.0;\npragma experimental ABIEncoderV2;\n\ncontract VeggieContract {\n  uint public id;\n\n  string constant farmerStage = \"Farmer\";\n  string constant factoryStage = \"Factory\";\n  string constant distributorStage = \"Distributor\";\n  string constant retailerStage = \"Retailer\";\n  string constant customerStage = \"Customer\";\n\n\n  mapping(uint => Veggie) private veggies;\n\n  struct Veggie {\n    uint id;\n    uint256 created;\n    string consignment;\n    address from;\n    address to;\n    string stage;\n    string comment;\n  }\n\n  constructor() public {\n    id = 0;\n    // createNewVieggiesBlock('carrot', 'nice', 'farm');\n    // createNewVieggiesBlock('carrot', 'nicee', 'farm');\n  }\n\n  // utility function\n  function isEqualStrings(string memory a, string memory b) public pure returns (bool) {\n    return keccak256(abi.encodePacked(a)) == keccak256(abi.encodePacked(b));\n  }\n\n  // generate consignment for tracking\n  function getRandomConsignment() public view returns (string memory) {\n    bytes memory result = new bytes(32);\n    uint256 rand = uint256(keccak256(abi.encodePacked(block.timestamp, msg.sender)));\n    for (uint256 i = 0; i < 32; i++) {\n      result[i] = bytes1(uint8(rand & 0xff));\n      rand >>= 8;\n    }\n    return string(result);\n  }\n\n  function createNewVieggiesBlock (address _to, string memory _comment, string memory _stage) public {\n    id++;\n    if (isEqualStrings(_stage, farmerStage)) {\n      veggies[id] = Veggie(id, block.timestamp, getRandomConsignment(), msg.sender, _to, _stage, _comment);\n      return;\n    }\n    \n    for (uint256 i = 1; i < id + 1; i++) {\n      if (msg.sender == veggies[i].to) {\n        // get consigments that delivered to the owner\n        veggies[id] = Veggie(id, block.timestamp, veggies[i].consignment, msg.sender, _to, _stage, _comment);\n      }\n    }\n  }\n\n  function getVeggieBlocksWithStage(string memory _stage) public view returns (Veggie[] memory) {\n    uint16 count = 0;\n    uint16 stageCount = 0;\n\n    for (uint256 i = 1; i < id + 1; i++) {\n      if (isEqualStrings(_stage, veggies[i].stage)) {\n        // get all matching stage blocks\n        count++;\n      }\n    }\n\n\n    Veggie[] memory res = new Veggie[](count);\n    for (uint256 i = 1; i < id + 1; i++) {\n      if (isEqualStrings(_stage, veggies[i].stage)) {\n        res[stageCount] = veggies[i];\n        stageCount++;\n      }\n    }\n\n    return res;\n  }\n}",
  "sourcePath": "/home/watermelon/pgs221/NetworkSecurity/source/blockchain-and-vegetable-production-supply-chain/blockchain/contracts/VeggieContract.sol",
  "compiler": {
    "name": "solc",
    "version": "0.5.0+commit.1d4f565a.Emscripten.clang"
  },
  "schemaVersion": "3.0.1",
  "updatedAt": "2023-04-12T13:39:16.676Z",
  "devdoc": {
    "methods": {}
  },
  "userdoc": {
    "methods": {}
  }
}