{
  "contractName": "VeggieContract",
  "abi": [
    {
      "inputs": [],
      "payable": false,
      "stateMutability": "nonpayable",
      "type": "constructor"
    },
    {
      "constant": true,
      "inputs": [],
      "name": "id",
      "outputs": [
        {
          "internalType": "uint256",
          "name": "",
          "type": "uint256"
        }
      ],
      "payable": false,
      "stateMutability": "view",
      "type": "function"
    },
    {
      "constant": true,
      "inputs": [
        {
          "internalType": "uint256",
          "name": "",
          "type": "uint256"
        }
      ],
      "name": "veggies",
      "outputs": [
        {
          "internalType": "uint256",
          "name": "id",
          "type": "uint256"
        },
        {
          "internalType": "uint256",
          "name": "created",
          "type": "uint256"
        },
        {
          "internalType": "string",
          "name": "consignment",
          "type": "string"
        },
        {
          "internalType": "address",
          "name": "from",
          "type": "address"
        },
        {
          "internalType": "address",
          "name": "to",
          "type": "address"
        },
        {
          "internalType": "string",
          "name": "stage",
          "type": "string"
        },
        {
          "internalType": "string",
          "name": "comment",
          "type": "string"
        }
      ],
      "payable": false,
      "stateMutability": "view",
      "type": "function"
    },
    {
      "constant": true,
      "inputs": [
        {
          "internalType": "string",
          "name": "a",
          "type": "string"
        },
        {
          "internalType": "string",
          "name": "b",
          "type": "string"
        }
      ],
      "name": "isEqualStrings",
      "outputs": [
        {
          "internalType": "bool",
          "name": "",
          "type": "bool"
        }
      ],
      "payable": false,
      "stateMutability": "pure",
      "type": "function"
    },
    {
      "constant": true,
      "inputs": [],
      "name": "getRandomConsignment",
      "outputs": [
        {
          "internalType": "string",
          "name": "",
          "type": "string"
        }
      ],
      "payable": false,
      "stateMutability": "view",
      "type": "function"
    },
    {
      "constant": false,
      "inputs": [
        {
          "internalType": "address",
          "name": "_to",
          "type": "address"
        },
        {
          "internalType": "string",
          "name": "_comment",
          "type": "string"
        },
        {
          "internalType": "string",
          "name": "_stage",
          "type": "string"
        }
      ],
      "name": "createNewVieggiesBlock",
      "outputs": [],
      "payable": false,
      "stateMutability": "nonpayable",
      "type": "function"
    },
    {
      "constant": true,
      "inputs": [
        {
          "internalType": "string",
          "name": "_stage",
          "type": "string"
        }
      ],
      "name": "getVeggieBlocksWithStage",
      "outputs": [
        {
          "components": [
            {
              "internalType": "uint256",
              "name": "id",
              "type": "uint256"
            },
            {
              "internalType": "uint256",
              "name": "created",
              "type": "uint256"
            },
            {
              "internalType": "string",
              "name": "consignment",
              "type": "string"
            },
            {
              "internalType": "address",
              "name": "from",
              "type": "address"
            },
            {
              "internalType": "address",
              "name": "to",
              "type": "address"
            },
            {
              "internalType": "string",
              "name": "stage",
              "type": "string"
            },
            {
              "internalType": "string",
              "name": "comment",
              "type": "string"
            }
          ],
          "internalType": "struct VeggieContract.Veggie[]",
          "name": "",
          "type": "tuple[]"
        }
      ],
      "payable": false,
      "stateMutability": "view",
      "type": "function"
    }
  ],
  "bytecode": "0x608060405234801561001057600080fd5b506000808190555061173b806100276000396000f3fe608060405234801561001057600080fd5b50600436106100625760003560e01c80634ed648a3146100675780636a7884f9146100975780637283e120146100cd578063af640d0f146100fd578063c7a82bc31461011b578063fcb6d1eb14610137575b600080fd5b610081600480360361007c91908101906110af565b610155565b60405161008e9190611431565b60405180910390f35b6100b160048036036100ac919081019061111b565b6101ae565b6040516100c49796959493929190611489565b60405180910390f35b6100e760048036036100e2919081019061106e565b6103f8565b6040516100f4919061140f565b60405180910390f35b610105610901565b604051610112919061146e565b60405180910390f35b61013560048036036101309190810190610fef565b610907565b005b61013f610d8b565b60405161014c919061144c565b60405180910390f35b60008160405160200161016891906113cc565b604051602081830303815290604052805190602001208360405160200161018f91906113cc565b6040516020818303038152906040528051906020012014905092915050565b6001602052806000526040600020600091509050806000015490806001015490806002018054600181600116156101000203166002900480601f0160208091040260200160405190810160405280929190818152602001828054600181600116156101000203166002900480156102665780601f1061023b57610100808354040283529160200191610266565b820191906000526020600020905b81548152906001019060200180831161024957829003601f168201915b5050505050908060030160009054906101000a900473ffffffffffffffffffffffffffffffffffffffff16908060040160009054906101000a900473ffffffffffffffffffffffffffffffffffffffff1690806005018054600181600116156101000203166002900480601f0160208091040260200160405190810160405280929190818152602001828054600181600116156101000203166002900480156103505780601f1061032557610100808354040283529160200191610350565b820191906000526020600020905b81548152906001019060200180831161033357829003601f168201915b505050505090806006018054600181600116156101000203166002900480601f0160208091040260200160405190810160405280929190818152602001828054600181600116156101000203166002900480156103ee5780601f106103c3576101008083540402835291602001916103ee565b820191906000526020600020905b8154815290600101906020018083116103d157829003601f168201915b5050505050905087565b6060600080905060008090506000600190505b6001600054018110156104eb576104d085600160008481526020019081526020016000206005018054600181600116156101000203166002900480601f0160208091040260200160405190810160405280929190818152602001828054600181600116156101000203166002900480156104c65780601f1061049b576101008083540402835291602001916104c6565b820191906000526020600020905b8154815290600101906020018083116104a957829003601f168201915b5050505050610155565b156104de5782806001019350505b808060010191505061040b565b5060608261ffff1660405190808252806020026020018201604052801561052c57816020015b610519610e63565b8152602001906001900390816105115790505b5090506000600190505b6001600054018110156108f5576105fb86600160008481526020019081526020016000206005018054600181600116156101000203166002900480601f0160208091040260200160405190810160405280929190818152602001828054600181600116156101000203166002900480156105f15780601f106105c6576101008083540402835291602001916105f1565b820191906000526020600020905b8154815290600101906020018083116105d457829003601f168201915b5050505050610155565b156108e857600160008281526020019081526020016000206040518060e00160405290816000820154815260200160018201548152602001600282018054600181600116156101000203166002900480601f0160208091040260200160405190810160405280929190818152602001828054600181600116156101000203166002900480156106cb5780601f106106a0576101008083540402835291602001916106cb565b820191906000526020600020905b8154815290600101906020018083116106ae57829003601f168201915b505050505081526020016003820160009054906101000a900473ffffffffffffffffffffffffffffffffffffffff1673ffffffffffffffffffffffffffffffffffffffff1673ffffffffffffffffffffffffffffffffffffffff1681526020016004820160009054906101000a900473ffffffffffffffffffffffffffffffffffffffff1673ffffffffffffffffffffffffffffffffffffffff1673ffffffffffffffffffffffffffffffffffffffff168152602001600582018054600181600116156101000203166002900480601f0160208091040260200160405190810160405280929190818152602001828054600181600116156101000203166002900480156108195780601f106107ee57610100808354040283529160200191610819565b820191906000526020600020905b8154815290600101906020018083116107fc57829003601f168201915b50505050508152602001600682018054600181600116156101000203166002900480601f0160208091040260200160405190810160405280929190818152602001828054600181600116156101000203166002900480156108bb5780601f10610890576101008083540402835291602001916108bb565b820191906000526020600020905b81548152906001019060200180831161089e57829003601f168201915b505050505081525050828461ffff16815181106108d457fe5b602002602001018190525082806001019350505b8080600101915050610536565b50809350505050919050565b60005481565b6000808154809291906001019190505550610957816040518060400160405280600681526020017f4661726d65720000000000000000000000000000000000000000000000000000815250610155565b15610ad9576040518060e00160405280600054815260200142815260200161097d610d8b565b81526020013373ffffffffffffffffffffffffffffffffffffffff1681526020018473ffffffffffffffffffffffffffffffffffffffff16815260200182815260200183815250600160008054815260200190815260200160002060008201518160000155602082015181600101556040820151816002019080519060200190610a08929190610ecc565b5060608201518160030160006101000a81548173ffffffffffffffffffffffffffffffffffffffff021916908373ffffffffffffffffffffffffffffffffffffffff16021790555060808201518160040160006101000a81548173ffffffffffffffffffffffffffffffffffffffff021916908373ffffffffffffffffffffffffffffffffffffffff16021790555060a0820151816005019080519060200190610ab3929190610ecc565b5060c0820151816006019080519060200190610ad0929190610ecc565b50905050610d86565b6000600190505b600160005401811015610d84576001600082815260200190815260200160002060040160009054906101000a900473ffffffffffffffffffffffffffffffffffffffff1673ffffffffffffffffffffffffffffffffffffffff163373ffffffffffffffffffffffffffffffffffffffff161415610d77576040518060e001604052806000548152602001428152602001600160008481526020019081526020016000206002018054600181600116156101000203166002900480601f016020809104026020016040519081016040528092919081815260200182805460018160011615610100020316600290048015610c1a5780601f10610bef57610100808354040283529160200191610c1a565b820191906000526020600020905b815481529060010190602001808311610bfd57829003601f168201915b505050505081526020013373ffffffffffffffffffffffffffffffffffffffff1681526020018573ffffffffffffffffffffffffffffffffffffffff16815260200183815260200184815250600160008054815260200190815260200160002060008201518160000155602082015181600101556040820151816002019080519060200190610caa929190610ecc565b5060608201518160030160006101000a81548173ffffffffffffffffffffffffffffffffffffffff021916908373ffffffffffffffffffffffffffffffffffffffff16021790555060808201518160040160006101000a81548173ffffffffffffffffffffffffffffffffffffffff021916908373ffffffffffffffffffffffffffffffffffffffff16021790555060a0820151816005019080519060200190610d55929190610ecc565b5060c0820151816006019080519060200190610d72929190610ecc565b509050505b8080600101915050610ae0565b505b505050565b60608060206040519080825280601f01601f191660200182016040528015610dc25781602001600182028038833980820191505090505b50905060004233604051602001610dda9291906113e3565b6040516020818303038152906040528051906020012060001c905060008090505b6020811015610e5a5760ff821660f81b838281518110610e1757fe5b60200101907effffffffffffffffffffffffffffffffffffffffffffffffffffffffffffff1916908160001a905350600882901c91508080600101915050610dfb565b50819250505090565b6040518060e00160405280600081526020016000815260200160608152602001600073ffffffffffffffffffffffffffffffffffffffff168152602001600073ffffffffffffffffffffffffffffffffffffffff16815260200160608152602001606081525090565b828054600181600116156101000203166002900490600052602060002090601f016020900481019282601f10610f0d57805160ff1916838001178555610f3b565b82800160010185558215610f3b579182015b82811115610f3a578251825591602001919060010190610f1f565b5b509050610f489190610f4c565b5090565b610f6e91905b80821115610f6a576000816000905550600101610f52565b5090565b90565b600081359050610f80816116ca565b92915050565b600082601f830112610f9757600080fd5b8135610faa610fa58261153a565b61150d565b91508082526020830160208301858383011115610fc657600080fd5b610fd183828461163c565b50505092915050565b600081359050610fe9816116e1565b92915050565b60008060006060848603121561100457600080fd5b600061101286828701610f71565b935050602084013567ffffffffffffffff81111561102f57600080fd5b61103b86828701610f86565b925050604084013567ffffffffffffffff81111561105857600080fd5b61106486828701610f86565b9150509250925092565b60006020828403121561108057600080fd5b600082013567ffffffffffffffff81111561109a57600080fd5b6110a684828501610f86565b91505092915050565b600080604083850312156110c257600080fd5b600083013567ffffffffffffffff8111156110dc57600080fd5b6110e885828601610f86565b925050602083013567ffffffffffffffff81111561110557600080fd5b61111185828601610f86565b9150509250929050565b60006020828403121561112d57600080fd5b600061113b84828501610fda565b91505092915050565b600061115083836112ed565b905092915050565b611169611164826115f4565b61167e565b82525050565b611178816115e2565b82525050565b611187816115e2565b82525050565b600061119882611576565b6111a281856115a4565b9350836020820285016111b485611566565b8060005b858110156111f057848403895281516111d18582611144565b94506111dc83611597565b925060208a019950506001810190506111b8565b50829750879550505050505092915050565b61120b81611606565b82525050565b600061121c8261158c565b61122681856115c6565b935061123681856020860161164b565b61123f816116ac565b840191505092915050565b60006112558261158c565b61125f81856115d7565b935061126f81856020860161164b565b80840191505092915050565b600061128682611581565b61129081856115b5565b93506112a081856020860161164b565b6112a9816116ac565b840191505092915050565b60006112bf82611581565b6112c981856115c6565b93506112d981856020860161164b565b6112e2816116ac565b840191505092915050565b600060e0830160008301516113056000860182611397565b5060208301516113186020860182611397565b5060408301518482036040860152611330828261127b565b9150506060830151611345606086018261116f565b506080830151611358608086018261116f565b5060a083015184820360a0860152611370828261127b565b91505060c083015184820360c086015261138a828261127b565b9150508091505092915050565b6113a081611632565b82525050565b6113af81611632565b82525050565b6113c66113c182611632565b6116a2565b82525050565b60006113d8828461124a565b915081905092915050565b60006113ef82856113b5565b6020820191506113ff8284611158565b6014820191508190509392505050565b60006020820190508181036000830152611429818461118d565b905092915050565b60006020820190506114466000830184611202565b92915050565b600060208201905081810360008301526114668184611211565b905092915050565b600060208201905061148360008301846113a6565b92915050565b600060e08201905061149e600083018a6113a6565b6114ab60208301896113a6565b81810360408301526114bd81886112b4565b90506114cc606083018761117e565b6114d9608083018661117e565b81810360a08301526114eb81856112b4565b905081810360c08301526114ff81846112b4565b905098975050505050505050565b6000604051905081810181811067ffffffffffffffff8211171561153057600080fd5b8060405250919050565b600067ffffffffffffffff82111561155157600080fd5b601f19601f8301169050602081019050919050565b6000819050602082019050919050565b600081519050919050565b600081519050919050565b600081519050919050565b6000602082019050919050565b600082825260208201905092915050565b600082825260208201905092915050565b600082825260208201905092915050565b600081905092915050565b60006115ed82611612565b9050919050565b60006115ff82611612565b9050919050565b60008115159050919050565b600073ffffffffffffffffffffffffffffffffffffffff82169050919050565b6000819050919050565b82818337600083830152505050565b60005b8381101561166957808201518184015260208101905061164e565b83811115611678576000848401525b50505050565b600061168982611690565b9050919050565b600061169b826116bd565b9050919050565b6000819050919050565b6000601f19601f8301169050919050565b60008160601b9050919050565b6116d3816115e2565b81146116de57600080fd5b50565b6116ea81611632565b81146116f557600080fd5b5056fea365627a7a723158204a16e4671a30b457f8be021a3ae94007ca376886d88981aa93696028d8afd4ee6c6578706572696d656e74616cf564736f6c63430005100040",
  "source": "pragma solidity >=0.4.22 <0.9.0;\npragma experimental ABIEncoderV2;\n\ncontract VeggieContract {\n  uint public id;\n\n  string constant farmerStage = \"Farmer\";\n  string constant factoryStage = \"Factory\";\n  string constant distributorStage = \"Distributor\";\n  string constant retailerStage = \"Retailer\";\n  string constant customerStage = \"Customer\";\n\n\n  mapping(uint => Veggie) public veggies;\n\n  struct Veggie {\n    uint id;\n    uint256 created;\n    string consignment;\n    address from;\n    address to;\n    string stage;\n    string comment;\n  }\n\n  constructor() public {\n    id = 0;\n    // createNewVieggiesBlock('carrot', 'nice', 'farm');\n    // createNewVieggiesBlock('carrot', 'nicee', 'farm');\n  }\n\n  // utility function\n  function isEqualStrings(string memory a, string memory b) public pure returns (bool) {\n    return keccak256(abi.encodePacked(a)) == keccak256(abi.encodePacked(b));\n  }\n\n  // generate consignment for tracking\n  function getRandomConsignment() public view returns (string memory) {\n    bytes memory result = new bytes(32);\n    uint256 rand = uint256(keccak256(abi.encodePacked(block.timestamp, msg.sender)));\n    for (uint256 i = 0; i < 32; i++) {\n      result[i] = bytes1(uint8(rand & 0xff));\n      rand >>= 8;\n    }\n    return string(result);\n  }\n\n  function createNewVieggiesBlock (address _to, string memory _comment, string memory _stage) public {\n    id++;\n    if (isEqualStrings(_stage, farmerStage)) {\n      veggies[id] = Veggie(id, block.timestamp, getRandomConsignment(), msg.sender, _to, _stage, _comment);\n      return;\n    }\n    \n    for (uint256 i = 1; i < id + 1; i++) {\n      if (msg.sender == veggies[i].to) {\n        // get consigments that delivered to the owner\n        veggies[id] = Veggie(id, block.timestamp, veggies[i].consignment, msg.sender, _to, _stage, _comment);\n      }\n    }\n  }\n\n  function getVeggieBlocksWithStage(string memory _stage) public view returns (Veggie[] memory) {\n    uint16 count = 0;\n    uint16 stageCount = 0;\n\n    for (uint256 i = 1; i < id + 1; i++) {\n      if (isEqualStrings(_stage, veggies[i].stage)) {\n        // get all matching stage blocks\n        count++;\n      }\n    }\n\n\n    Veggie[] memory res = new Veggie[](count);\n    for (uint256 i = 1; i < id + 1; i++) {\n      if (isEqualStrings(_stage, veggies[i].stage)) {\n        res[stageCount] = veggies[i];\n        stageCount++;\n      }\n    }\n\n    return res;\n  }\n}",
  "sourcePath": "/home/thanhnt26/Desktop/blockchain-and-vegetable-production-supply-chain/blockchain/contracts/VeggieContract.sol",
  "compiler": {
    "name": "solc",
    "version": "0.5.16+commit.9c3226ce.Emscripten.clang"
  },
  "schemaVersion": "3.4.13",
  "updatedAt": "2023-04-14T02:55:00.506Z",
  "devdoc": {
    "methods": {}
  },
  "userdoc": {
    "methods": {}
  }
}