{
  "contractName": "VeggieContract",
  "abi": [
    {
      "constant": true,
      "inputs": [
        {
          "name": "",
          "type": "uint256"
        }
      ],
      "name": "veggies",
      "outputs": [
        {
          "name": "id",
          "type": "uint256"
        },
        {
          "name": "created",
          "type": "uint256"
        },
        {
          "name": "consignment",
          "type": "string"
        },
        {
          "name": "from",
          "type": "address"
        },
        {
          "name": "to",
          "type": "address"
        },
        {
          "name": "stage",
          "type": "string"
        },
        {
          "name": "comment",
          "type": "string"
        }
      ],
      "payable": false,
      "stateMutability": "view",
      "type": "function",
      "signature": "0x6a7884f9"
    },
    {
      "constant": true,
      "inputs": [],
      "name": "id",
      "outputs": [
        {
          "name": "",
          "type": "uint256"
        }
      ],
      "payable": false,
      "stateMutability": "view",
      "type": "function",
      "signature": "0xaf640d0f"
    },
    {
      "inputs": [],
      "payable": false,
      "stateMutability": "nonpayable",
      "type": "constructor",
      "signature": "constructor"
    },
    {
      "constant": true,
      "inputs": [
        {
          "name": "a",
          "type": "string"
        },
        {
          "name": "b",
          "type": "string"
        }
      ],
      "name": "isEqualStrings",
      "outputs": [
        {
          "name": "",
          "type": "bool"
        }
      ],
      "payable": false,
      "stateMutability": "pure",
      "type": "function",
      "signature": "0x4ed648a3"
    },
    {
      "constant": true,
      "inputs": [],
      "name": "getRandomConsignment",
      "outputs": [
        {
          "name": "",
          "type": "string"
        }
      ],
      "payable": false,
      "stateMutability": "view",
      "type": "function",
      "signature": "0xfcb6d1eb"
    },
    {
      "constant": true,
      "inputs": [
        {
          "name": "length",
          "type": "uint256"
        }
      ],
      "name": "generateRandomStringWithSize",
      "outputs": [
        {
          "name": "",
          "type": "string"
        }
      ],
      "payable": false,
      "stateMutability": "view",
      "type": "function",
      "signature": "0x994c9769"
    },
    {
      "constant": false,
      "inputs": [
        {
          "name": "_to",
          "type": "address"
        },
        {
          "name": "_comment",
          "type": "string"
        },
        {
          "name": "_stage",
          "type": "string"
        }
      ],
      "name": "createNewVieggiesBlock",
      "outputs": [],
      "payable": false,
      "stateMutability": "nonpayable",
      "type": "function",
      "signature": "0xc7a82bc3"
    },
    {
      "constant": true,
      "inputs": [
        {
          "name": "_stage",
          "type": "string"
        }
      ],
      "name": "getVeggieBlocksWithStage",
      "outputs": [
        {
          "components": [
            {
              "name": "id",
              "type": "uint256"
            },
            {
              "name": "created",
              "type": "uint256"
            },
            {
              "name": "consignment",
              "type": "string"
            },
            {
              "name": "from",
              "type": "address"
            },
            {
              "name": "to",
              "type": "address"
            },
            {
              "name": "stage",
              "type": "string"
            },
            {
              "name": "comment",
              "type": "string"
            }
          ],
          "name": "",
          "type": "tuple[]"
        }
      ],
      "payable": false,
      "stateMutability": "view",
      "type": "function",
      "signature": "0x7283e120"
    },
    {
      "constant": true,
      "inputs": [
        {
          "name": "_consignment",
          "type": "string"
        }
      ],
      "name": "getVeggieStageByConsignment",
      "outputs": [
        {
          "components": [
            {
              "name": "id",
              "type": "uint256"
            },
            {
              "name": "created",
              "type": "uint256"
            },
            {
              "name": "consignment",
              "type": "string"
            },
            {
              "name": "from",
              "type": "address"
            },
            {
              "name": "to",
              "type": "address"
            },
            {
              "name": "stage",
              "type": "string"
            },
            {
              "name": "comment",
              "type": "string"
            }
          ],
          "name": "",
          "type": "tuple[]"
        }
      ],
      "payable": false,
      "stateMutability": "view",
      "type": "function",
      "signature": "0x1b239f70"
    },
    {
      "constant": true,
      "inputs": [
        {
          "name": "_consignment",
          "type": "string"
        },
        {
          "name": "_stage",
          "type": "string"
        }
      ],
      "name": "getVeggieByConsignmentAndStage",
      "outputs": [
        {
          "components": [
            {
              "name": "id",
              "type": "uint256"
            },
            {
              "name": "created",
              "type": "uint256"
            },
            {
              "name": "consignment",
              "type": "string"
            },
            {
              "name": "from",
              "type": "address"
            },
            {
              "name": "to",
              "type": "address"
            },
            {
              "name": "stage",
              "type": "string"
            },
            {
              "name": "comment",
              "type": "string"
            }
          ],
          "name": "",
          "type": "tuple"
        }
      ],
      "payable": false,
      "stateMutability": "view",
      "type": "function",
      "signature": "0xff81c9b0"
    },
    {
      "constant": true,
      "inputs": [
        {
          "name": "_consignment",
          "type": "string"
        }
      ],
      "name": "getCommentFromFarmerByConsignment",
      "outputs": [
        {
          "name": "",
          "type": "string"
        }
      ],
      "payable": false,
      "stateMutability": "view",
      "type": "function",
      "signature": "0xde1018ba"
    }
  ],
  "bytecode": "0x60806040523480156200001157600080fd5b50600080819055506040805190810160405280600681526020017f4661726d6572000000000000000000000000000000000000000000000000000081525060016040805190810160405280600781526020017f466163746f7279000000000000000000000000000000000000000000000000008152506040518082805190602001908083835b602083101515620000be578051825260208201915060208101905060208303925062000097565b6001836020036101000a0380198251168184511680821785525050505050509050019150509081526020016040518091039020908051906020019062000106929190620003d7565b506040805190810160405280600781526020017f466163746f72790000000000000000000000000000000000000000000000000081525060016040805190810160405280600b81526020017f4469737472696275746f720000000000000000000000000000000000000000008152506040518082805190602001908083835b602083101515620001ac578051825260208201915060208101905060208303925062000185565b6001836020036101000a03801982511681845116808217855250505050505090500191505090815260200160405180910390209080519060200190620001f4929190620003d7565b506040805190810160405280600b81526020017f4469737472696275746f7200000000000000000000000000000000000000000081525060016040805190810160405280600881526020017f52657461696c65720000000000000000000000000000000000000000000000008152506040518082805190602001908083835b6020831015156200029a578051825260208201915060208101905060208303925062000273565b6001836020036101000a03801982511681845116808217855250505050505090500191505090815260200160405180910390209080519060200190620002e2929190620003d7565b506040805190810160405280600881526020017f52657461696c657200000000000000000000000000000000000000000000000081525060016040805190810160405280600881526020017f437573746f6d65720000000000000000000000000000000000000000000000008152506040518082805190602001908083835b60208310151562000388578051825260208201915060208101905060208303925062000361565b6001836020036101000a03801982511681845116808217855250505050505090500191505090815260200160405180910390209080519060200190620003d0929190620003d7565b5062000486565b828054600181600116156101000203166002900490600052602060002090601f016020900481019282601f106200041a57805160ff19168380011785556200044b565b828001600101855582156200044b579182015b828111156200044a5782518255916020019190600101906200042d565b5b5090506200045a91906200045e565b5090565b6200048391905b808211156200047f57600081600090555060010162000465565b5090565b90565b6128dc80620004966000396000f3fe6080604052600436106100a4576000357c0100000000000000000000000000000000000000000000000000000000900463ffffffff1680631b239f70146100a95780634ed648a3146100e65780636a7884f9146101235780637283e12014610166578063994c9769146101a3578063af640d0f146101e0578063c7a82bc31461020b578063de1018ba14610234578063fcb6d1eb14610271578063ff81c9b01461029c575b600080fd5b3480156100b557600080fd5b506100d060048036036100cb9190810190612306565b6102d9565b6040516100dd9190612637565b60405180910390f35b3480156100f257600080fd5b5061010d60048036036101089190810190612347565b610707565b60405161011a9190612659565b60405180910390f35b34801561012f57600080fd5b5061014a600480360361014591908101906123b3565b6107fa565b60405161015d97969594939291906126d3565b60405180910390f35b34801561017257600080fd5b5061018d60048036036101889190810190612306565b610a44565b60405161019a9190612637565b60405180910390f35b3480156101af57600080fd5b506101ca60048036036101c591908101906123b3565b610f52565b6040516101d79190612674565b60405180910390f35b3480156101ec57600080fd5b506101f56110ed565b60405161020291906126b8565b60405180910390f35b34801561021757600080fd5b50610232600480360361022d9190810190612287565b6110f3565b005b34801561024057600080fd5b5061025b60048036036102569190810190612306565b61173e565b6040516102689190612674565b60405180910390f35b34801561027d57600080fd5b50610286611a19565b6040516102939190612674565b60405180910390f35b3480156102a857600080fd5b506102c360048036036102be9190810190612347565b611b5d565b6040516102d09190612696565b60405180910390f35b606080600560405190808252806020026020018201604052801561031757816020015b610304612090565b8152602001906001900390816102fc5790505b50905060008090506000600190505b6001600054018161ffff1610156106fc576103f3600260008361ffff1681526020019081526020016000206002018054600181600116156101000203166002900480601f0160208091040260200160405190810160405280929190818152602001828054600181600116156101000203166002900480156103e85780601f106103bd576101008083540402835291602001916103e8565b820191906000526020600020905b8154815290600101906020018083116103cb57829003601f168201915b505050505086610707565b156106ef5760058261ffff1610156106ee57600260008261ffff16815260200190815260200160002060e060405190810160405290816000820154815260200160018201548152602001600282018054600181600116156101000203166002900480601f0160208091040260200160405190810160405280929190818152602001828054600181600116156101000203166002900480156104d55780601f106104aa576101008083540402835291602001916104d5565b820191906000526020600020905b8154815290600101906020018083116104b857829003601f168201915b505050505081526020016003820160009054906101000a900473ffffffffffffffffffffffffffffffffffffffff1673ffffffffffffffffffffffffffffffffffffffff1673ffffffffffffffffffffffffffffffffffffffff1681526020016004820160009054906101000a900473ffffffffffffffffffffffffffffffffffffffff1673ffffffffffffffffffffffffffffffffffffffff1673ffffffffffffffffffffffffffffffffffffffff168152602001600582018054600181600116156101000203166002900480601f0160208091040260200160405190810160405280929190818152602001828054600181600116156101000203166002900480156106235780601f106105f857610100808354040283529160200191610623565b820191906000526020600020905b81548152906001019060200180831161060657829003601f168201915b50505050508152602001600682018054600181600116156101000203166002900480601f0160208091040260200160405190810160405280929190818152602001828054600181600116156101000203166002900480156106c55780601f1061069a576101008083540402835291602001916106c5565b820191906000526020600020905b8154815290600101906020018083116106a857829003601f168201915b505050505081525050838361ffff168151811015156106e057fe5b906020019060200201819052505b5b8080600101915050610326565b508192505050919050565b6000816040516020018082805190602001908083835b602083101515610742578051825260208201915060208101905060208303925061071d565b6001836020036101000a03801982511681845116808217855250505050505090500191505060405160208183030381529060405280519060200120836040516020018082805190602001908083835b6020831015156107b65780518252602082019150602081019050602083039250610791565b6001836020036101000a0380198251168184511680821785525050505050509050019150506040516020818303038152906040528051906020012014905092915050565b6002602052806000526040600020600091509050806000015490806001015490806002018054600181600116156101000203166002900480601f0160208091040260200160405190810160405280929190818152602001828054600181600116156101000203166002900480156108b25780601f10610887576101008083540402835291602001916108b2565b820191906000526020600020905b81548152906001019060200180831161089557829003601f168201915b5050505050908060030160009054906101000a900473ffffffffffffffffffffffffffffffffffffffff16908060040160009054906101000a900473ffffffffffffffffffffffffffffffffffffffff1690806005018054600181600116156101000203166002900480601f01602080910402602001604051908101604052809291908181526020018280546001816001161561010002031660029004801561099c5780601f106109715761010080835404028352916020019161099c565b820191906000526020600020905b81548152906001019060200180831161097f57829003601f168201915b505050505090806006018054600181600116156101000203166002900480601f016020809104026020016040519081016040528092919081815260200182805460018160011615610100020316600290048015610a3a5780601f10610a0f57610100808354040283529160200191610a3a565b820191906000526020600020905b815481529060010190602001808311610a1d57829003601f168201915b5050505050905087565b6060600080905060008090506000600190505b600160005401811015610b3757610b1c85600260008481526020019081526020016000206005018054600181600116156101000203166002900480601f016020809104026020016040519081016040528092919081815260200182805460018160011615610100020316600290048015610b125780601f10610ae757610100808354040283529160200191610b12565b820191906000526020600020905b815481529060010190602001808311610af557829003601f168201915b5050505050610707565b15610b2a5782806001019350505b8080600101915050610a57565b5060608261ffff16604051908082528060200260200182016040528015610b7857816020015b610b65612090565b815260200190600190039081610b5d5790505b5090506000600190505b600160005401811015610f4657610c4786600260008481526020019081526020016000206005018054600181600116156101000203166002900480601f016020809104026020016040519081016040528092919081815260200182805460018160011615610100020316600290048015610c3d5780601f10610c1257610100808354040283529160200191610c3d565b820191906000526020600020905b815481529060010190602001808311610c2057829003601f168201915b5050505050610707565b15610f39576002600082815260200190815260200160002060e060405190810160405290816000820154815260200160018201548152602001600282018054600181600116156101000203166002900480601f016020809104026020016040519081016040528092919081815260200182805460018160011615610100020316600290048015610d185780601f10610ced57610100808354040283529160200191610d18565b820191906000526020600020905b815481529060010190602001808311610cfb57829003601f168201915b505050505081526020016003820160009054906101000a900473ffffffffffffffffffffffffffffffffffffffff1673ffffffffffffffffffffffffffffffffffffffff1673ffffffffffffffffffffffffffffffffffffffff1681526020016004820160009054906101000a900473ffffffffffffffffffffffffffffffffffffffff1673ffffffffffffffffffffffffffffffffffffffff1673ffffffffffffffffffffffffffffffffffffffff168152602001600582018054600181600116156101000203166002900480601f016020809104026020016040519081016040528092919081815260200182805460018160011615610100020316600290048015610e665780601f10610e3b57610100808354040283529160200191610e66565b820191906000526020600020905b815481529060010190602001808311610e4957829003601f168201915b50505050508152602001600682018054600181600116156101000203166002900480601f016020809104026020016040519081016040528092919081815260200182805460018160011615610100020316600290048015610f085780601f10610edd57610100808354040283529160200191610f08565b820191906000526020600020905b815481529060010190602001808311610eeb57829003601f168201915b505050505081525050828461ffff16815181101515610f2357fe5b9060200190602002018190525082806001019350505b8080600101915050610b82565b50809350505050919050565b606080606060405190810160405280603e81526020017f6162636465666768696a6b6c6d6e6f707172737475767778797a41424344454681526020017f4748494a4b4c4d4e4f505152535455565758595a30313233343536373839000081525090506060836040519080825280601f01601f191660200182016040528015610fe95781602001600182028038833980820191505090505b50905060008090505b848110156110e2576000835142836040516020018083815260200182815260200192505050604051602081830303815290604052805190602001206001900481151561103a57fe5b069050838181518110151561104b57fe5b9060200101517f010000000000000000000000000000000000000000000000000000000000000090047f01000000000000000000000000000000000000000000000000000000000000000283838151811015156110a457fe5b9060200101907effffffffffffffffffffffffffffffffffffffffffffffffffffffffffffff1916908160001a905350508080600101915050610ff2565b508092505050919050565b60005481565b6000808154809291906001019190505550611143816040805190810160405280600681526020017f4661726d65720000000000000000000000000000000000000000000000000000815250610707565b156112c85760e060405190810160405280600054815260200142815260200161116c6014610f52565b81526020013373ffffffffffffffffffffffffffffffffffffffff1681526020018473ffffffffffffffffffffffffffffffffffffffff168152602001828152602001838152506002600080548152602001908152602001600020600082015181600001556020820151816001015560408201518160020190805190602001906111f79291906120fa565b5060608201518160030160006101000a81548173ffffffffffffffffffffffffffffffffffffffff021916908373ffffffffffffffffffffffffffffffffffffffff16021790555060808201518160040160006101000a81548173ffffffffffffffffffffffffffffffffffffffff021916908373ffffffffffffffffffffffffffffffffffffffff16021790555060a08201518160050190805190602001906112a29291906120fa565b5060c08201518160060190805190602001906112bf9291906120fa565b50905050611739565b6000600190505b600160005401811015611737576002600082815260200190815260200160002060040160009054906101000a900473ffffffffffffffffffffffffffffffffffffffff1673ffffffffffffffffffffffffffffffffffffffff163373ffffffffffffffffffffffffffffffffffffffff161480156115045750611503600260008381526020019081526020016000206005018054600181600116156101000203166002900480601f0160208091040260200160405190810160405280929190818152602001828054600181600116156101000203166002900480156113f55780601f106113ca576101008083540402835291602001916113f5565b820191906000526020600020905b8154815290600101906020018083116113d857829003601f168201915b50505050506001846040518082805190602001908083835b602083101515611432578051825260208201915060208101905060208303925061140d565b6001836020036101000a03801982511681845116808217855250505050505090500191505090815260200160405180910390208054600181600116156101000203166002900480601f0160208091040260200160405190810160405280929190818152602001828054600181600116156101000203166002900480156114f95780601f106114ce576101008083540402835291602001916114f9565b820191906000526020600020905b8154815290600101906020018083116114dc57829003601f168201915b5050505050610707565b5b1561172a5760e0604051908101604052806000548152602001428152602001600260008481526020019081526020016000206002018054600181600116156101000203166002900480601f0160208091040260200160405190810160405280929190818152602001828054600181600116156101000203166002900480156115cd5780601f106115a2576101008083540402835291602001916115cd565b820191906000526020600020905b8154815290600101906020018083116115b057829003601f168201915b505050505081526020013373ffffffffffffffffffffffffffffffffffffffff1681526020018573ffffffffffffffffffffffffffffffffffffffff1681526020018381526020018481525060026000805481526020019081526020016000206000820151816000015560208201518160010155604082015181600201908051906020019061165d9291906120fa565b5060608201518160030160006101000a81548173ffffffffffffffffffffffffffffffffffffffff021916908373ffffffffffffffffffffffffffffffffffffffff16021790555060808201518160040160006101000a81548173ffffffffffffffffffffffffffffffffffffffff021916908373ffffffffffffffffffffffffffffffffffffffff16021790555060a08201518160050190805190602001906117089291906120fa565b5060c08201518160060190805190602001906117259291906120fa565b509050505b80806001019150506112cf565b505b505050565b60606000600190505b6001600054018161ffff1610156119da57611814600260008361ffff1681526020019081526020016000206002018054600181600116156101000203166002900480601f0160208091040260200160405190810160405280929190818152602001828054600181600116156101000203166002900480156118095780601f106117de57610100808354040283529160200191611809565b820191906000526020600020905b8154815290600101906020018083116117ec57829003601f168201915b505050505084610707565b801561190d575061190c600260008361ffff1681526020019081526020016000206005018054600181600116156101000203166002900480601f0160208091040260200160405190810160405280929190818152602001828054600181600116156101000203166002900480156118cc5780601f106118a1576101008083540402835291602001916118cc565b820191906000526020600020905b8154815290600101906020018083116118af57829003601f168201915b50505050506040805190810160405280600681526020017f4661726d65720000000000000000000000000000000000000000000000000000815250610707565b5b156119cd57600260008261ffff1681526020019081526020016000206006018054600181600116156101000203166002900480601f0160208091040260200160405190810160405280929190818152602001828054600181600116156101000203166002900480156119c05780601f10611995576101008083540402835291602001916119c0565b820191906000526020600020905b8154815290600101906020018083116119a357829003601f168201915b5050505050915050611a14565b8080600101915050611747565b506040805190810160405280600981526020017f6e6f7420666f756e64000000000000000000000000000000000000000000000081525090505b919050565b60608060206040519080825280601f01601f191660200182016040528015611a505781602001600182028038833980820191505090505b50905060004233604051602001808381526020018273ffffffffffffffffffffffffffffffffffffffff1673ffffffffffffffffffffffffffffffffffffffff166c01000000000000000000000000028152601401925050506040516020818303038152906040528051906020012060019004905060008090505b6020811015611b545760ff82167f0100000000000000000000000000000000000000000000000000000000000000028382815181101515611b0857fe5b9060200101907effffffffffffffffffffffffffffffffffffffffffffffffffffffffffffff1916908160001a905350600882908060020a820491505091508080600101915050611acb565b50819250505090565b611b6561217a565b6000600190505b6001600054018161ffff161015611fe057611c39600260008361ffff1681526020019081526020016000206002018054600181600116156101000203166002900480601f016020809104026020016040519081016040528092919081815260200182805460018160011615610100020316600290048015611c2e5780601f10611c0357610100808354040283529160200191611c2e565b820191906000526020600020905b815481529060010190602001808311611c1157829003601f168201915b505050505085610707565b8015611cfd5750611cfc600260008361ffff1681526020019081526020016000206005018054600181600116156101000203166002900480601f016020809104026020016040519081016040528092919081815260200182805460018160011615610100020316600290048015611cf15780601f10611cc657610100808354040283529160200191611cf1565b820191906000526020600020905b815481529060010190602001808311611cd457829003601f168201915b505050505084610707565b5b15611fd357600260008261ffff16815260200190815260200160002060e060405190810160405290816000820154815260200160018201548152602001600282018054600181600116156101000203166002900480601f016020809104026020016040519081016040528092919081815260200182805460018160011615610100020316600290048015611dd25780601f10611da757610100808354040283529160200191611dd2565b820191906000526020600020905b815481529060010190602001808311611db557829003601f168201915b505050505081526020016003820160009054906101000a900473ffffffffffffffffffffffffffffffffffffffff1673ffffffffffffffffffffffffffffffffffffffff1673ffffffffffffffffffffffffffffffffffffffff1681526020016004820160009054906101000a900473ffffffffffffffffffffffffffffffffffffffff1673ffffffffffffffffffffffffffffffffffffffff1673ffffffffffffffffffffffffffffffffffffffff168152602001600582018054600181600116156101000203166002900480601f016020809104026020016040519081016040528092919081815260200182805460018160011615610100020316600290048015611f205780601f10611ef557610100808354040283529160200191611f20565b820191906000526020600020905b815481529060010190602001808311611f0357829003601f168201915b50505050508152602001600682018054600181600116156101000203166002900480601f016020809104026020016040519081016040528092919081815260200182805460018160011615610100020316600290048015611fc25780601f10611f9757610100808354040283529160200191611fc2565b820191906000526020600020905b815481529060010190602001808311611fa557829003601f168201915b50505050508152505091505061208a565b8080600101915050611b6c565b5060e060405190810160405280600081526020014281526020016040805190810160405280600981526020017f6e6f7420666f756e64000000000000000000000000000000000000000000000081525081526020013373ffffffffffffffffffffffffffffffffffffffff1681526020013373ffffffffffffffffffffffffffffffffffffffff168152602001838152602001602060405190810160405280600081525081525090505b92915050565b60e060405190810160405280600081526020016000815260200160608152602001600073ffffffffffffffffffffffffffffffffffffffff168152602001600073ffffffffffffffffffffffffffffffffffffffff16815260200160608152602001606081525090565b828054600181600116156101000203166002900490600052602060002090601f016020900481019282601f1061213b57805160ff1916838001178555612169565b82800160010185558215612169579182015b8281111561216857825182559160200191906001019061214d565b5b50905061217691906121e4565b5090565b60e060405190810160405280600081526020016000815260200160608152602001600073ffffffffffffffffffffffffffffffffffffffff168152602001600073ffffffffffffffffffffffffffffffffffffffff16815260200160608152602001606081525090565b61220691905b808211156122025760008160009055506001016121ea565b5090565b90565b60006122158235612833565b905092915050565b600082601f830112151561223057600080fd5b813561224361223e82612784565b612757565b9150808252602083016020830185838301111561225f57600080fd5b61226a83828461284f565b50505092915050565b600061227f8235612845565b905092915050565b60008060006060848603121561229c57600080fd5b60006122aa86828701612209565b935050602084013567ffffffffffffffff8111156122c757600080fd5b6122d38682870161221d565b925050604084013567ffffffffffffffff8111156122f057600080fd5b6122fc8682870161221d565b9150509250925092565b60006020828403121561231857600080fd5b600082013567ffffffffffffffff81111561233257600080fd5b61233e8482850161221d565b91505092915050565b6000806040838503121561235a57600080fd5b600083013567ffffffffffffffff81111561237457600080fd5b6123808582860161221d565b925050602083013567ffffffffffffffff81111561239d57600080fd5b6123a98582860161221d565b9150509250929050565b6000602082840312156123c557600080fd5b60006123d384828501612273565b91505092915050565b6123e5816127eb565b82525050565b60006123f6826127bd565b8084526020840193508360208202850161240f856127b0565b60005b8481101561244857838303885261242a83835161257e565b9250612435826127de565b9150602088019750600181019050612412565b508196508694505050505092915050565b612462816127fd565b82525050565b6000612473826127d3565b80845261248781602086016020860161285e565b61249081612891565b602085010191505092915050565b60006124a9826127c8565b8084526124bd81602086016020860161285e565b6124c681612891565b602085010191505092915050565b600060e0830160008301516124ec6000860182612628565b5060208301516124ff6020860182612628565b5060408301518482036040860152612517828261249e565b915050606083015161252c60608601826123dc565b50608083015161253f60808601826123dc565b5060a083015184820360a0860152612557828261249e565b91505060c083015184820360c0860152612571828261249e565b9150508091505092915050565b600060e0830160008301516125966000860182612628565b5060208301516125a96020860182612628565b50604083015184820360408601526125c1828261249e565b91505060608301516125d660608601826123dc565b5060808301516125e960808601826123dc565b5060a083015184820360a0860152612601828261249e565b91505060c083015184820360c086015261261b828261249e565b9150508091505092915050565b61263181612829565b82525050565b6000602082019050818103600083015261265181846123eb565b905092915050565b600060208201905061266e6000830184612459565b92915050565b6000602082019050818103600083015261268e8184612468565b905092915050565b600060208201905081810360008301526126b081846124d4565b905092915050565b60006020820190506126cd6000830184612628565b92915050565b600060e0820190506126e8600083018a612628565b6126f56020830189612628565b8181036040830152612707818861249e565b905061271660608301876123dc565b61272360808301866123dc565b81810360a0830152612735818561249e565b905081810360c0830152612749818461249e565b905098975050505050505050565b6000604051905081810181811067ffffffffffffffff8211171561277a57600080fd5b8060405250919050565b600067ffffffffffffffff82111561279b57600080fd5b601f19601f8301169050602081019050919050565b6000602082019050919050565b600081519050919050565b600081519050919050565b600081519050919050565b6000602082019050919050565b60006127f682612809565b9050919050565b60008115159050919050565b600073ffffffffffffffffffffffffffffffffffffffff82169050919050565b6000819050919050565b600061283e82612809565b9050919050565b6000819050919050565b82818337600083830152505050565b60005b8381101561287c578082015181840152602081019050612861565b8381111561288b576000848401525b50505050565b6000601f19601f830116905091905056fea265627a7a723058200dda75878d3f7a055e9c3516010bd717a797d5619828ae8f40ccbebf909081006c6578706572696d656e74616cf50037",
  "source": "pragma solidity >=0.4.22 <0.9.0;\npragma experimental ABIEncoderV2;\n\ncontract VeggieContract {\n  uint public id;\n\n  string constant farmerStage = \"Farmer\";\n  string constant factoryStage = \"Factory\";\n  string constant distributorStage = \"Distributor\";\n  string constant retailerStage = \"Retailer\";\n  string constant customerStage = \"Customer\";\n\n  mapping(string => string) private previousStage;\n\n\n  mapping(uint => Veggie) public veggies;\n\n  struct Veggie {\n    uint id;\n    uint256 created;\n    string consignment;\n    address from;\n    address to;\n    string stage;\n    string comment;\n  }\n\n  constructor() public {\n    id = 0;\n\n    previousStage[factoryStage] = farmerStage;\n    previousStage[distributorStage] = factoryStage;\n    previousStage[retailerStage] = distributorStage;\n    previousStage[customerStage] = retailerStage;\n    // createNewVieggiesBlock('carrot', 'nice', 'farm');\n    // createNewVieggiesBlock('carrot', 'nicee', 'farm');\n  }\n\n  // utility function\n  function isEqualStrings(string memory a, string memory b) public pure returns (bool) {\n    return keccak256(abi.encodePacked(a)) == keccak256(abi.encodePacked(b));\n  }\n\n  // generate consignment for tracking\n  function getRandomConsignment() public view returns (string memory) {\n    bytes memory result = new bytes(32);\n    uint256 rand = uint256(keccak256(abi.encodePacked(block.timestamp, msg.sender)));\n    for (uint256 i = 0; i < 32; i++) {\n      result[i] = bytes1(uint8(rand & 0xff));\n      rand >>= 8;\n    }\n    return string(result);\n  }\n\n  function generateRandomStringWithSize(uint256 length) public view returns (string memory) {\n    bytes memory characters = \"abcdefghijklmnopqrstuvwxyzABCDEFGHIJKLMNOPQRSTUVWXYZ0123456789\";\n    bytes memory result = new bytes(length);\n\n    for (uint256 i = 0; i < length; i++) {\n        uint256 charIndex = uint256(keccak256(abi.encodePacked(block.timestamp, i))) % characters.length;\n        result[i] = characters[charIndex];\n    }\n\n    return string(result);\n  }\n\n  function createNewVieggiesBlock (address _to, string memory _comment, string memory _stage) public {\n    id++;\n    if (isEqualStrings(_stage, farmerStage)) {\n      veggies[id] = Veggie(id, block.timestamp, generateRandomStringWithSize(20), msg.sender, _to, _stage, _comment);\n      return;\n    }\n    \n    for (uint256 i = 1; i < id + 1; i++) {\n      if (msg.sender == veggies[i].to && isEqualStrings(veggies[i].stage, previousStage[_stage])) {\n        // get consigments that delivered to the owner\n        veggies[id] = Veggie(id, block.timestamp, veggies[i].consignment, msg.sender, _to, _stage, _comment);\n      }\n    }\n  }\n\n  function getVeggieBlocksWithStage(string memory _stage) public view returns (Veggie[] memory) {\n    uint16 count = 0;\n    uint16 stageCount = 0;\n\n    for (uint256 i = 1; i < id + 1; i++) {\n      if (isEqualStrings(_stage, veggies[i].stage)) {\n        // get all matching stage blocks\n        count++;\n      }\n    }\n\n\n    Veggie[] memory res = new Veggie[](count);\n    for (uint256 i = 1; i < id + 1; i++) {\n      if (isEqualStrings(_stage, veggies[i].stage)) {\n        res[stageCount] = veggies[i];\n        stageCount++;\n      }\n    }\n\n    return res;\n  }\n\n  function getVeggieStageByConsignment(string memory _consignment) public view returns (Veggie[] memory) {\n    Veggie[] memory res = new Veggie[](5);\n\n    uint16 count = 0;\n    for (uint16 i = 1; i < id + 1; i++) {\n      if (isEqualStrings(veggies[i].consignment, _consignment)) {\n        // same consignment, add to result transaction\n        if (count < 5) {\n          res[count] = veggies[i];\n        }\n      }\n    }\n\n    return res;\n  }\n\n  function getVeggieByConsignmentAndStage(string memory _consignment, string memory _stage) public view returns (Veggie memory) {\n    for (uint16 i = 1; i < id + 1; i++) {\n      if (isEqualStrings(veggies[i].consignment, _consignment) && isEqualStrings(veggies[i].stage, _stage)) {\n        // same consignment, add to result transaction\n        return veggies[i];\n      }\n    }\n\n    return Veggie(0, block.timestamp, \"not found\", msg.sender, msg.sender, _stage, \"\");\n  }\n\n  function getCommentFromFarmerByConsignment(string memory _consignment) public view returns (string memory) {\n    for (uint16 i = 1; i < id + 1; i++) {\n      if (isEqualStrings(veggies[i].consignment, _consignment) && isEqualStrings(veggies[i].stage, farmerStage)) {\n        return veggies[i].comment;\n      }\n    }\n\n    return \"not found\";\n  }\n}",
  "sourcePath": "/home/watermelon/pgs221/NetworkSecurity/source/blockchain-and-vegetable-production-supply-chain/blockchain/contracts/VeggieContract.sol",
  "compiler": {
    "name": "solc",
    "version": "0.5.0+commit.1d4f565a.Emscripten.clang"
  },
  "schemaVersion": "3.0.1",
  "updatedAt": "2023-04-14T10:16:09.462Z",
  "devdoc": {
    "methods": {}
  },
  "userdoc": {
    "methods": {}
  }
}