{
  "contractName": "VeggieContract",
  "abi": [
    {
      "inputs": [],
      "payable": false,
      "stateMutability": "nonpayable",
      "type": "constructor"
    },
    {
      "constant": true,
      "inputs": [],
      "name": "id",
      "outputs": [
        {
          "internalType": "uint256",
          "name": "",
          "type": "uint256"
        }
      ],
      "payable": false,
      "stateMutability": "view",
      "type": "function"
    },
    {
      "constant": true,
      "inputs": [
        {
          "internalType": "uint256",
          "name": "",
          "type": "uint256"
        }
      ],
      "name": "veggies",
      "outputs": [
        {
          "internalType": "uint256",
          "name": "id",
          "type": "uint256"
        },
        {
          "internalType": "uint256",
          "name": "created",
          "type": "uint256"
        },
        {
          "internalType": "string",
          "name": "consignment",
          "type": "string"
        },
        {
          "internalType": "address",
          "name": "from",
          "type": "address"
        },
        {
          "internalType": "address",
          "name": "to",
          "type": "address"
        },
        {
          "internalType": "string",
          "name": "stage",
          "type": "string"
        },
        {
          "internalType": "string",
          "name": "comment",
          "type": "string"
        }
      ],
      "payable": false,
      "stateMutability": "view",
      "type": "function"
    },
    {
      "constant": true,
      "inputs": [
        {
          "internalType": "string",
          "name": "a",
          "type": "string"
        },
        {
          "internalType": "string",
          "name": "b",
          "type": "string"
        }
      ],
      "name": "isEqualStrings",
      "outputs": [
        {
          "internalType": "bool",
          "name": "",
          "type": "bool"
        }
      ],
      "payable": false,
      "stateMutability": "pure",
      "type": "function"
    },
    {
      "constant": true,
      "inputs": [],
      "name": "getRandomConsignment",
      "outputs": [
        {
          "internalType": "string",
          "name": "",
          "type": "string"
        }
      ],
      "payable": false,
      "stateMutability": "view",
      "type": "function"
    },
    {
      "constant": false,
      "inputs": [
        {
          "internalType": "address",
          "name": "_to",
          "type": "address"
        },
        {
          "internalType": "string",
          "name": "_comment",
          "type": "string"
        },
        {
          "internalType": "string",
          "name": "_stage",
          "type": "string"
        }
      ],
      "name": "createNewVieggiesBlock",
      "outputs": [],
      "payable": false,
      "stateMutability": "nonpayable",
      "type": "function"
    },
    {
      "constant": true,
      "inputs": [
        {
          "internalType": "string",
          "name": "_stage",
          "type": "string"
        }
      ],
      "name": "getVeggieBlocksWithStage",
      "outputs": [
        {
          "components": [
            {
              "internalType": "uint256",
              "name": "id",
              "type": "uint256"
            },
            {
              "internalType": "uint256",
              "name": "created",
              "type": "uint256"
            },
            {
              "internalType": "string",
              "name": "consignment",
              "type": "string"
            },
            {
              "internalType": "address",
              "name": "from",
              "type": "address"
            },
            {
              "internalType": "address",
              "name": "to",
              "type": "address"
            },
            {
              "internalType": "string",
              "name": "stage",
              "type": "string"
            },
            {
              "internalType": "string",
              "name": "comment",
              "type": "string"
            }
          ],
          "internalType": "struct VeggieContract.Veggie[]",
          "name": "",
          "type": "tuple[]"
        }
      ],
      "payable": false,
      "stateMutability": "view",
      "type": "function"
    },
    {
      "constant": true,
      "inputs": [
        {
          "internalType": "string",
          "name": "_consignment",
          "type": "string"
        }
      ],
      "name": "getVeggieStageByConsignment",
      "outputs": [
        {
          "components": [
            {
              "internalType": "uint256",
              "name": "id",
              "type": "uint256"
            },
            {
              "internalType": "uint256",
              "name": "created",
              "type": "uint256"
            },
            {
              "internalType": "string",
              "name": "consignment",
              "type": "string"
            },
            {
              "internalType": "address",
              "name": "from",
              "type": "address"
            },
            {
              "internalType": "address",
              "name": "to",
              "type": "address"
            },
            {
              "internalType": "string",
              "name": "stage",
              "type": "string"
            },
            {
              "internalType": "string",
              "name": "comment",
              "type": "string"
            }
          ],
          "internalType": "struct VeggieContract.Veggie[]",
          "name": "",
          "type": "tuple[]"
        }
      ],
      "payable": false,
      "stateMutability": "view",
      "type": "function"
    }
  ],
  "bytecode": "0x608060405234801561001057600080fd5b5060008081905550611baf806100276000396000f3fe608060405234801561001057600080fd5b506004361061007d5760003560e01c80637283e1201161005b5780637283e12014610118578063af640d0f14610148578063c7a82bc314610166578063fcb6d1eb146101825761007d565b80631b239f70146100825780634ed648a3146100b25780636a7884f9146100e2575b600080fd5b61009c600480360361009791908101906114e2565b6101a0565b6040516100a99190611883565b60405180910390f35b6100cc60048036036100c79190810190611523565b6105c9565b6040516100d991906118a5565b60405180910390f35b6100fc60048036036100f7919081019061158f565b610622565b60405161010f97969594939291906118fd565b60405180910390f35b610132600480360361012d91908101906114e2565b61086c565b60405161013f9190611883565b60405180910390f35b610150610d75565b60405161015d91906118e2565b60405180910390f35b610180600480360361017b9190810190611463565b610d7b565b005b61018a6111ff565b60405161019791906118c0565b60405180910390f35b60608060056040519080825280602002602001820160405280156101de57816020015b6101cb6112d7565b8152602001906001900390816101c35790505b50905060008090506000600190505b6001600054018161ffff1610156105be576102ba600160008361ffff1681526020019081526020016000206002018054600181600116156101000203166002900480601f0160208091040260200160405190810160405280929190818152602001828054600181600116156101000203166002900480156102af5780601f10610284576101008083540402835291602001916102af565b820191906000526020600020905b81548152906001019060200180831161029257829003601f168201915b5050505050866105c9565b156105b15760058261ffff1610156105b057600160008261ffff1681526020019081526020016000206040518060e00160405290816000820154815260200160018201548152602001600282018054600181600116156101000203166002900480601f01602080910402602001604051908101604052809291908181526020018280546001816001161561010002031660029004801561039b5780601f106103705761010080835404028352916020019161039b565b820191906000526020600020905b81548152906001019060200180831161037e57829003601f168201915b505050505081526020016003820160009054906101000a900473ffffffffffffffffffffffffffffffffffffffff1673ffffffffffffffffffffffffffffffffffffffff1673ffffffffffffffffffffffffffffffffffffffff1681526020016004820160009054906101000a900473ffffffffffffffffffffffffffffffffffffffff1673ffffffffffffffffffffffffffffffffffffffff1673ffffffffffffffffffffffffffffffffffffffff168152602001600582018054600181600116156101000203166002900480601f0160208091040260200160405190810160405280929190818152602001828054600181600116156101000203166002900480156104e95780601f106104be576101008083540402835291602001916104e9565b820191906000526020600020905b8154815290600101906020018083116104cc57829003601f168201915b50505050508152602001600682018054600181600116156101000203166002900480601f01602080910402602001604051908101604052809291908181526020018280546001816001161561010002031660029004801561058b5780601f106105605761010080835404028352916020019161058b565b820191906000526020600020905b81548152906001019060200180831161056e57829003601f168201915b505050505081525050838361ffff16815181106105a457fe5b60200260200101819052505b5b80806001019150506101ed565b508192505050919050565b6000816040516020016105dc9190611840565b60405160208183030381529060405280519060200120836040516020016106039190611840565b6040516020818303038152906040528051906020012014905092915050565b6001602052806000526040600020600091509050806000015490806001015490806002018054600181600116156101000203166002900480601f0160208091040260200160405190810160405280929190818152602001828054600181600116156101000203166002900480156106da5780601f106106af576101008083540402835291602001916106da565b820191906000526020600020905b8154815290600101906020018083116106bd57829003601f168201915b5050505050908060030160009054906101000a900473ffffffffffffffffffffffffffffffffffffffff16908060040160009054906101000a900473ffffffffffffffffffffffffffffffffffffffff1690806005018054600181600116156101000203166002900480601f0160208091040260200160405190810160405280929190818152602001828054600181600116156101000203166002900480156107c45780601f10610799576101008083540402835291602001916107c4565b820191906000526020600020905b8154815290600101906020018083116107a757829003601f168201915b505050505090806006018054600181600116156101000203166002900480601f0160208091040260200160405190810160405280929190818152602001828054600181600116156101000203166002900480156108625780601f1061083757610100808354040283529160200191610862565b820191906000526020600020905b81548152906001019060200180831161084557829003601f168201915b5050505050905087565b6060600080905060008090506000600190505b60016000540181101561095f5761094485600160008481526020019081526020016000206005018054600181600116156101000203166002900480601f01602080910402602001604051908101604052809291908181526020018280546001816001161561010002031660029004801561093a5780601f1061090f5761010080835404028352916020019161093a565b820191906000526020600020905b81548152906001019060200180831161091d57829003601f168201915b50505050506105c9565b156109525782806001019350505b808060010191505061087f565b5060608261ffff166040519080825280602002602001820160405280156109a057816020015b61098d6112d7565b8152602001906001900390816109855790505b5090506000600190505b600160005401811015610d6957610a6f86600160008481526020019081526020016000206005018054600181600116156101000203166002900480601f016020809104026020016040519081016040528092919081815260200182805460018160011615610100020316600290048015610a655780601f10610a3a57610100808354040283529160200191610a65565b820191906000526020600020905b815481529060010190602001808311610a4857829003601f168201915b50505050506105c9565b15610d5c57600160008281526020019081526020016000206040518060e00160405290816000820154815260200160018201548152602001600282018054600181600116156101000203166002900480601f016020809104026020016040519081016040528092919081815260200182805460018160011615610100020316600290048015610b3f5780601f10610b1457610100808354040283529160200191610b3f565b820191906000526020600020905b815481529060010190602001808311610b2257829003601f168201915b505050505081526020016003820160009054906101000a900473ffffffffffffffffffffffffffffffffffffffff1673ffffffffffffffffffffffffffffffffffffffff1673ffffffffffffffffffffffffffffffffffffffff1681526020016004820160009054906101000a900473ffffffffffffffffffffffffffffffffffffffff1673ffffffffffffffffffffffffffffffffffffffff1673ffffffffffffffffffffffffffffffffffffffff168152602001600582018054600181600116156101000203166002900480601f016020809104026020016040519081016040528092919081815260200182805460018160011615610100020316600290048015610c8d5780601f10610c6257610100808354040283529160200191610c8d565b820191906000526020600020905b815481529060010190602001808311610c7057829003601f168201915b50505050508152602001600682018054600181600116156101000203166002900480601f016020809104026020016040519081016040528092919081815260200182805460018160011615610100020316600290048015610d2f5780601f10610d0457610100808354040283529160200191610d2f565b820191906000526020600020905b815481529060010190602001808311610d1257829003601f168201915b505050505081525050828461ffff1681518110610d4857fe5b602002602001018190525082806001019350505b80806001019150506109aa565b50809350505050919050565b60005481565b6000808154809291906001019190505550610dcb816040518060400160405280600681526020017f4661726d657200000000000000000000000000000000000000000000000000008152506105c9565b15610f4d576040518060e001604052806000548152602001428152602001610df16111ff565b81526020013373ffffffffffffffffffffffffffffffffffffffff1681526020018473ffffffffffffffffffffffffffffffffffffffff16815260200182815260200183815250600160008054815260200190815260200160002060008201518160000155602082015181600101556040820151816002019080519060200190610e7c929190611340565b5060608201518160030160006101000a81548173ffffffffffffffffffffffffffffffffffffffff021916908373ffffffffffffffffffffffffffffffffffffffff16021790555060808201518160040160006101000a81548173ffffffffffffffffffffffffffffffffffffffff021916908373ffffffffffffffffffffffffffffffffffffffff16021790555060a0820151816005019080519060200190610f27929190611340565b5060c0820151816006019080519060200190610f44929190611340565b509050506111fa565b6000600190505b6001600054018110156111f8576001600082815260200190815260200160002060040160009054906101000a900473ffffffffffffffffffffffffffffffffffffffff1673ffffffffffffffffffffffffffffffffffffffff163373ffffffffffffffffffffffffffffffffffffffff1614156111eb576040518060e001604052806000548152602001428152602001600160008481526020019081526020016000206002018054600181600116156101000203166002900480601f01602080910402602001604051908101604052809291908181526020018280546001816001161561010002031660029004801561108e5780601f106110635761010080835404028352916020019161108e565b820191906000526020600020905b81548152906001019060200180831161107157829003601f168201915b505050505081526020013373ffffffffffffffffffffffffffffffffffffffff1681526020018573ffffffffffffffffffffffffffffffffffffffff1681526020018381526020018481525060016000805481526020019081526020016000206000820151816000015560208201518160010155604082015181600201908051906020019061111e929190611340565b5060608201518160030160006101000a81548173ffffffffffffffffffffffffffffffffffffffff021916908373ffffffffffffffffffffffffffffffffffffffff16021790555060808201518160040160006101000a81548173ffffffffffffffffffffffffffffffffffffffff021916908373ffffffffffffffffffffffffffffffffffffffff16021790555060a08201518160050190805190602001906111c9929190611340565b5060c08201518160060190805190602001906111e6929190611340565b509050505b8080600101915050610f54565b505b505050565b60608060206040519080825280601f01601f1916602001820160405280156112365781602001600182028038833980820191505090505b5090506000423360405160200161124e929190611857565b6040516020818303038152906040528051906020012060001c905060008090505b60208110156112ce5760ff821660f81b83828151811061128b57fe5b60200101907effffffffffffffffffffffffffffffffffffffffffffffffffffffffffffff1916908160001a905350600882901c9150808060010191505061126f565b50819250505090565b6040518060e00160405280600081526020016000815260200160608152602001600073ffffffffffffffffffffffffffffffffffffffff168152602001600073ffffffffffffffffffffffffffffffffffffffff16815260200160608152602001606081525090565b828054600181600116156101000203166002900490600052602060002090601f016020900481019282601f1061138157805160ff19168380011785556113af565b828001600101855582156113af579182015b828111156113ae578251825591602001919060010190611393565b5b5090506113bc91906113c0565b5090565b6113e291905b808211156113de5760008160009055506001016113c6565b5090565b90565b6000813590506113f481611b3e565b92915050565b600082601f83011261140b57600080fd5b813561141e611419826119ae565b611981565b9150808252602083016020830185838301111561143a57600080fd5b611445838284611ab0565b50505092915050565b60008135905061145d81611b55565b92915050565b60008060006060848603121561147857600080fd5b6000611486868287016113e5565b935050602084013567ffffffffffffffff8111156114a357600080fd5b6114af868287016113fa565b925050604084013567ffffffffffffffff8111156114cc57600080fd5b6114d8868287016113fa565b9150509250925092565b6000602082840312156114f457600080fd5b600082013567ffffffffffffffff81111561150e57600080fd5b61151a848285016113fa565b91505092915050565b6000806040838503121561153657600080fd5b600083013567ffffffffffffffff81111561155057600080fd5b61155c858286016113fa565b925050602083013567ffffffffffffffff81111561157957600080fd5b611585858286016113fa565b9150509250929050565b6000602082840312156115a157600080fd5b60006115af8482850161144e565b91505092915050565b60006115c48383611761565b905092915050565b6115dd6115d882611a68565b611af2565b82525050565b6115ec81611a56565b82525050565b6115fb81611a56565b82525050565b600061160c826119ea565b6116168185611a18565b935083602082028501611628856119da565b8060005b85811015611664578484038952815161164585826115b8565b945061165083611a0b565b925060208a0199505060018101905061162c565b50829750879550505050505092915050565b61167f81611a7a565b82525050565b600061169082611a00565b61169a8185611a3a565b93506116aa818560208601611abf565b6116b381611b20565b840191505092915050565b60006116c982611a00565b6116d38185611a4b565b93506116e3818560208601611abf565b80840191505092915050565b60006116fa826119f5565b6117048185611a29565b9350611714818560208601611abf565b61171d81611b20565b840191505092915050565b6000611733826119f5565b61173d8185611a3a565b935061174d818560208601611abf565b61175681611b20565b840191505092915050565b600060e083016000830151611779600086018261180b565b50602083015161178c602086018261180b565b50604083015184820360408601526117a482826116ef565b91505060608301516117b960608601826115e3565b5060808301516117cc60808601826115e3565b5060a083015184820360a08601526117e482826116ef565b91505060c083015184820360c08601526117fe82826116ef565b9150508091505092915050565b61181481611aa6565b82525050565b61182381611aa6565b82525050565b61183a61183582611aa6565b611b16565b82525050565b600061184c82846116be565b915081905092915050565b60006118638285611829565b60208201915061187382846115cc565b6014820191508190509392505050565b6000602082019050818103600083015261189d8184611601565b905092915050565b60006020820190506118ba6000830184611676565b92915050565b600060208201905081810360008301526118da8184611685565b905092915050565b60006020820190506118f7600083018461181a565b92915050565b600060e082019050611912600083018a61181a565b61191f602083018961181a565b81810360408301526119318188611728565b905061194060608301876115f2565b61194d60808301866115f2565b81810360a083015261195f8185611728565b905081810360c08301526119738184611728565b905098975050505050505050565b6000604051905081810181811067ffffffffffffffff821117156119a457600080fd5b8060405250919050565b600067ffffffffffffffff8211156119c557600080fd5b601f19601f8301169050602081019050919050565b6000819050602082019050919050565b600081519050919050565b600081519050919050565b600081519050919050565b6000602082019050919050565b600082825260208201905092915050565b600082825260208201905092915050565b600082825260208201905092915050565b600081905092915050565b6000611a6182611a86565b9050919050565b6000611a7382611a86565b9050919050565b60008115159050919050565b600073ffffffffffffffffffffffffffffffffffffffff82169050919050565b6000819050919050565b82818337600083830152505050565b60005b83811015611add578082015181840152602081019050611ac2565b83811115611aec576000848401525b50505050565b6000611afd82611b04565b9050919050565b6000611b0f82611b31565b9050919050565b6000819050919050565b6000601f19601f8301169050919050565b60008160601b9050919050565b611b4781611a56565b8114611b5257600080fd5b50565b611b5e81611aa6565b8114611b6957600080fd5b5056fea365627a7a72315820689b9e09ced615d3a9afb4cf7dd240828e605595b3ff96b08879ceb5d3e706af6c6578706572696d656e74616cf564736f6c63430005100040",
  "source": "pragma solidity >=0.4.22 <0.9.0;\npragma experimental ABIEncoderV2;\n\ncontract VeggieContract {\n  uint public id;\n\n  string constant farmerStage = \"Farmer\";\n  string constant factoryStage = \"Factory\";\n  string constant distributorStage = \"Distributor\";\n  string constant retailerStage = \"Retailer\";\n  string constant customerStage = \"Customer\";\n\n\n  mapping(uint => Veggie) public veggies;\n\n  struct Veggie {\n    uint id;\n    uint256 created;\n    string consignment;\n    address from;\n    address to;\n    string stage;\n    string comment;\n  }\n\n  constructor() public {\n    id = 0;\n    // createNewVieggiesBlock('carrot', 'nice', 'farm');\n    // createNewVieggiesBlock('carrot', 'nicee', 'farm');\n  }\n\n  // utility function\n  function isEqualStrings(string memory a, string memory b) public pure returns (bool) {\n    return keccak256(abi.encodePacked(a)) == keccak256(abi.encodePacked(b));\n  }\n\n  // generate consignment for tracking\n  function getRandomConsignment() public view returns (string memory) {\n    bytes memory result = new bytes(32);\n    uint256 rand = uint256(keccak256(abi.encodePacked(block.timestamp, msg.sender)));\n    for (uint256 i = 0; i < 32; i++) {\n      result[i] = bytes1(uint8(rand & 0xff));\n      rand >>= 8;\n    }\n    return string(result);\n  }\n\n  function createNewVieggiesBlock (address _to, string memory _comment, string memory _stage) public {\n    id++;\n    if (isEqualStrings(_stage, farmerStage)) {\n      veggies[id] = Veggie(id, block.timestamp, getRandomConsignment(), msg.sender, _to, _stage, _comment);\n      return;\n    }\n    \n    for (uint256 i = 1; i < id + 1; i++) {\n      if (msg.sender == veggies[i].to) {\n        // get consigments that delivered to the owner\n        veggies[id] = Veggie(id, block.timestamp, veggies[i].consignment, msg.sender, _to, _stage, _comment);\n      }\n    }\n  }\n\n  function getVeggieBlocksWithStage(string memory _stage) public view returns (Veggie[] memory) {\n    uint16 count = 0;\n    uint16 stageCount = 0;\n\n    for (uint256 i = 1; i < id + 1; i++) {\n      if (isEqualStrings(_stage, veggies[i].stage)) {\n        // get all matching stage blocks\n        count++;\n      }\n    }\n\n\n    Veggie[] memory res = new Veggie[](count);\n    for (uint256 i = 1; i < id + 1; i++) {\n      if (isEqualStrings(_stage, veggies[i].stage)) {\n        res[stageCount] = veggies[i];\n        stageCount++;\n      }\n    }\n\n    return res;\n  }\n\n  function getVeggieStageByConsignment(string memory _consignment) public view returns (Veggie[] memory) {\n    Veggie[] memory res = new Veggie[](5);\n\n    uint16 count = 0;\n    for (uint16 i = 1; i < id + 1; i++) {\n      if (isEqualStrings(veggies[i].consignment, _consignment)) {\n        // same consignment, add to result transaction\n        if (count < 5) {\n          res[count] = veggies[i];\n        }\n      }\n    }\n\n    return res;\n  }\n}",
  "sourcePath": "/home/thanhnt26/Desktop/blockchain-and-vegetable-production-supply-chain/blockchain/contracts/VeggieContract.sol",
  "compiler": {
    "name": "solc",
    "version": "0.5.16+commit.9c3226ce.Emscripten.clang"
  },
  "schemaVersion": "3.4.13",
  "updatedAt": "2023-04-14T04:26:40.861Z",
  "networkType": "ethereum",
  "devdoc": {
    "methods": {}
  },
  "userdoc": {
    "methods": {}
  }
}