{
  "contractName": "VeggieContract",
  "abi": [
    {
      "constant": true,
      "inputs": [
        {
          "name": "",
          "type": "uint256"
        }
      ],
      "name": "veggies",
      "outputs": [
        {
          "name": "id",
          "type": "uint256"
        },
        {
          "name": "created",
          "type": "uint256"
        },
        {
          "name": "consignment",
          "type": "string"
        },
        {
          "name": "comment",
          "type": "string"
        }
      ],
      "payable": false,
      "stateMutability": "view",
      "type": "function",
      "signature": "0x6a7884f9"
    },
    {
      "constant": true,
      "inputs": [],
      "name": "id",
      "outputs": [
        {
          "name": "",
          "type": "uint256"
        }
      ],
      "payable": false,
      "stateMutability": "view",
      "type": "function",
      "signature": "0xaf640d0f"
    },
    {
      "inputs": [],
      "payable": false,
      "stateMutability": "nonpayable",
      "type": "constructor",
      "signature": "constructor"
    },
    {
      "constant": false,
      "inputs": [
        {
          "name": "_consignment",
          "type": "string"
        },
        {
          "name": "_comment",
          "type": "string"
        }
      ],
      "name": "createNewVieggiesBlock",
      "outputs": [],
      "payable": false,
      "stateMutability": "nonpayable",
      "type": "function",
      "signature": "0xecfb2d3b"
    }
  ],
  "bytecode": "0x608060405234801561001057600080fd5b506100946040805190810160405280600581526020017f68656c6c6f0000000000000000000000000000000000000000000000000000008152506040805190810160405280600581526020017f776f726c64000000000000000000000000000000000000000000000000000000815250610099640100000000026401000000009004565b6101dc565b6000808154809291906001019190505550608060405190810160405280600054815260200142815260200183815260200182815250600160008054815260200190815260200160002060008201518160000155602082015181600101556040820151816002019080519060200190610112929190610137565b50606082015181600301908051906020019061012f929190610137565b509050505050565b828054600181600116156101000203166002900490600052602060002090601f016020900481019282601f1061017857805160ff19168380011785556101a6565b828001600101855582156101a6579182015b828111156101a557825182559160200191906001019061018a565b5b5090506101b391906101b7565b5090565b6101d991905b808211156101d55760008160009055506001016101bd565b5090565b90565b6105e9806101eb6000396000f3fe608060405260043610610057576000357c0100000000000000000000000000000000000000000000000000000000900463ffffffff1680636a7884f91461005c578063af640d0f1461018a578063ecfb2d3b146101b5575b600080fd5b34801561006857600080fd5b506100956004803603602081101561007f57600080fd5b8101908080359060200190929190505050610314565b604051808581526020018481526020018060200180602001838103835285818151815260200191508051906020019080838360005b838110156100e55780820151818401526020810190506100ca565b50505050905090810190601f1680156101125780820380516001836020036101000a031916815260200191505b50838103825284818151815260200191508051906020019080838360005b8381101561014b578082015181840152602081019050610130565b50505050905090810190601f1680156101785780820380516001836020036101000a031916815260200191505b50965050505050505060405180910390f35b34801561019657600080fd5b5061019f610474565b6040518082815260200191505060405180910390f35b3480156101c157600080fd5b50610312600480360360408110156101d857600080fd5b81019080803590602001906401000000008111156101f557600080fd5b82018360208201111561020757600080fd5b8035906020019184600183028401116401000000008311171561022957600080fd5b91908080601f016020809104026020016040519081016040528093929190818152602001838380828437600081840152601f19601f8201169050808301925050505050505091929192908035906020019064010000000081111561028c57600080fd5b82018360208201111561029e57600080fd5b803590602001918460018302840111640100000000831117156102c057600080fd5b91908080601f016020809104026020016040519081016040528093929190818152602001838380828437600081840152601f19601f82011690508083019250505050505050919291929050505061047a565b005b6001602052806000526040600020600091509050806000015490806001015490806002018054600181600116156101000203166002900480601f0160208091040260200160405190810160405280929190818152602001828054600181600116156101000203166002900480156103cc5780601f106103a1576101008083540402835291602001916103cc565b820191906000526020600020905b8154815290600101906020018083116103af57829003601f168201915b505050505090806003018054600181600116156101000203166002900480601f01602080910402602001604051908101604052809291908181526020018280546001816001161561010002031660029004801561046a5780601f1061043f5761010080835404028352916020019161046a565b820191906000526020600020905b81548152906001019060200180831161044d57829003601f168201915b5050505050905084565b60005481565b60008081548092919060010191905055506080604051908101604052806000548152602001428152602001838152602001828152506001600080548152602001908152602001600020600082015181600001556020820151816001015560408201518160020190805190602001906104f3929190610518565b506060820151816003019080519060200190610510929190610518565b509050505050565b828054600181600116156101000203166002900490600052602060002090601f016020900481019282601f1061055957805160ff1916838001178555610587565b82800160010185558215610587579182015b8281111561058657825182559160200191906001019061056b565b5b5090506105949190610598565b5090565b6105ba91905b808211156105b657600081600090555060010161059e565b5090565b9056fea165627a7a72305820f3211037a0f18706715dafe9fdf78a2f50df1bf278027b8cd415ce26f76ed8610029",
  "source": "pragma solidity >=0.4.22 <0.9.0;\r\n\r\ncontract VeggieContract {\r\n  uint public id;\r\n\r\n  constructor() public {\r\n    createNewVieggiesBlock('hello', 'world');\r\n  }\r\n\r\n  struct Veggie {\r\n    uint id;\r\n    uint256 created;\r\n    string consignment;\r\n    string comment;\r\n  }\r\n\r\n  mapping(uint => Veggie) public veggies;\r\n\r\n  function createNewVieggiesBlock (string memory _consignment, string memory _comment) public {\r\n    id++;\r\n    veggies[id] = Veggie(id, block.timestamp, _consignment, _comment);\r\n  }\r\n}",
  "sourcePath": "D:/Documents/Master/Network security/blockchain-and-vegetable-production-supply-chain/blockchain/contracts/VeggieContract.sol",
  "compiler": {
    "name": "solc",
    "version": "0.5.0+commit.1d4f565a.Emscripten.clang"
  },
  "schemaVersion": "3.0.1",
  "updatedAt": "2023-04-09T09:04:23.009Z",
  "devdoc": {
    "methods": {}
  },
  "userdoc": {
    "methods": {}
  }
}