{
  "contractName": "VeggieContract",
  "abi": [
    {
      "constant": true,
      "inputs": [
        {
          "name": "",
          "type": "uint256"
        }
      ],
      "name": "veggies",
      "outputs": [
        {
          "name": "id",
          "type": "uint256"
        },
        {
          "name": "created",
          "type": "uint256"
        },
        {
          "name": "consignment",
          "type": "string"
        },
        {
          "name": "from",
          "type": "address"
        },
        {
          "name": "to",
          "type": "address"
        },
        {
          "name": "stage",
          "type": "string"
        },
        {
          "name": "comment",
          "type": "string"
        }
      ],
      "payable": false,
      "stateMutability": "view",
      "type": "function",
      "signature": "0x6a7884f9"
    },
    {
      "constant": true,
      "inputs": [],
      "name": "id",
      "outputs": [
        {
          "name": "",
          "type": "uint256"
        }
      ],
      "payable": false,
      "stateMutability": "view",
      "type": "function",
      "signature": "0xaf640d0f"
    },
    {
      "inputs": [],
      "payable": false,
      "stateMutability": "nonpayable",
      "type": "constructor",
      "signature": "constructor"
    },
    {
      "constant": true,
      "inputs": [
        {
          "name": "a",
          "type": "string"
        },
        {
          "name": "b",
          "type": "string"
        }
      ],
      "name": "isEqualStrings",
      "outputs": [
        {
          "name": "",
          "type": "bool"
        }
      ],
      "payable": false,
      "stateMutability": "pure",
      "type": "function",
      "signature": "0x4ed648a3"
    },
    {
      "constant": true,
      "inputs": [],
      "name": "getRandomConsignment",
      "outputs": [
        {
          "name": "",
          "type": "string"
        }
      ],
      "payable": false,
      "stateMutability": "view",
      "type": "function",
      "signature": "0xfcb6d1eb"
    },
    {
      "constant": false,
      "inputs": [
        {
          "name": "_to",
          "type": "address"
        },
        {
          "name": "_comment",
          "type": "string"
        },
        {
          "name": "_stage",
          "type": "string"
        }
      ],
      "name": "createNewVieggiesBlock",
      "outputs": [],
      "payable": false,
      "stateMutability": "nonpayable",
      "type": "function",
      "signature": "0xc7a82bc3"
    },
    {
      "constant": true,
      "inputs": [
        {
          "name": "_stage",
          "type": "string"
        }
      ],
      "name": "getVeggieBlocksWithStage",
      "outputs": [
        {
          "components": [
            {
              "name": "id",
              "type": "uint256"
            },
            {
              "name": "created",
              "type": "uint256"
            },
            {
              "name": "consignment",
              "type": "string"
            },
            {
              "name": "from",
              "type": "address"
            },
            {
              "name": "to",
              "type": "address"
            },
            {
              "name": "stage",
              "type": "string"
            },
            {
              "name": "comment",
              "type": "string"
            }
          ],
          "name": "",
          "type": "tuple[]"
        }
      ],
      "payable": false,
      "stateMutability": "view",
      "type": "function",
      "signature": "0x7283e120"
    },
    {
      "constant": true,
      "inputs": [
        {
          "name": "_consignment",
          "type": "string"
        }
      ],
      "name": "getVeggieStageByConsignment",
      "outputs": [
        {
          "components": [
            {
              "name": "id",
              "type": "uint256"
            },
            {
              "name": "created",
              "type": "uint256"
            },
            {
              "name": "consignment",
              "type": "string"
            },
            {
              "name": "from",
              "type": "address"
            },
            {
              "name": "to",
              "type": "address"
            },
            {
              "name": "stage",
              "type": "string"
            },
            {
              "name": "comment",
              "type": "string"
            }
          ],
          "name": "",
          "type": "tuple[]"
        }
      ],
      "payable": false,
      "stateMutability": "view",
      "type": "function",
      "signature": "0x1b239f70"
    },
    {
      "constant": true,
      "inputs": [
        {
          "name": "_consignment",
          "type": "string"
        }
      ],
      "name": "getCommentFromFarmerByConsignment",
      "outputs": [
        {
          "name": "",
          "type": "string"
        }
      ],
      "payable": false,
      "stateMutability": "view",
      "type": "function",
      "signature": "0xde1018ba"
    }
  ],
  "bytecode": "0x608060405234801561001057600080fd5b5060008081905550611e83806100276000396000f3fe60806040526004361061008e576000357c0100000000000000000000000000000000000000000000000000000000900463ffffffff1680631b239f70146100935780634ed648a3146100d05780636a7884f91461010d5780637283e12014610150578063af640d0f1461018d578063c7a82bc3146101b8578063de1018ba146101e1578063fcb6d1eb1461021e575b600080fd5b34801561009f57600080fd5b506100ba60048036036100b59190810190611979565b610249565b6040516100c79190611c00565b60405180910390f35b3480156100dc57600080fd5b506100f760048036036100f291908101906119ba565b610677565b6040516101049190611c22565b60405180910390f35b34801561011957600080fd5b50610134600480360361012f9190810190611a26565b61076a565b6040516101479796959493929190611c7a565b60405180910390f35b34801561015c57600080fd5b5061017760048036036101729190810190611979565b6109b4565b6040516101849190611c00565b60405180910390f35b34801561019957600080fd5b506101a2610ec2565b6040516101af9190611c5f565b60405180910390f35b3480156101c457600080fd5b506101df60048036036101da91908101906118fa565b610ec8565b005b3480156101ed57600080fd5b5061020860048036036102039190810190611979565b61134e565b6040516102159190611c3d565b60405180910390f35b34801561022a57600080fd5b50610233611629565b6040516102409190611c3d565b60405180910390f35b606080600560405190808252806020026020018201604052801561028757816020015b61027461176d565b81526020019060019003908161026c5790505b50905060008090506000600190505b6001600054018161ffff16101561066c57610363600160008361ffff1681526020019081526020016000206002018054600181600116156101000203166002900480601f0160208091040260200160405190810160405280929190818152602001828054600181600116156101000203166002900480156103585780601f1061032d57610100808354040283529160200191610358565b820191906000526020600020905b81548152906001019060200180831161033b57829003601f168201915b505050505086610677565b1561065f5760058261ffff16101561065e57600160008261ffff16815260200190815260200160002060e060405190810160405290816000820154815260200160018201548152602001600282018054600181600116156101000203166002900480601f0160208091040260200160405190810160405280929190818152602001828054600181600116156101000203166002900480156104455780601f1061041a57610100808354040283529160200191610445565b820191906000526020600020905b81548152906001019060200180831161042857829003601f168201915b505050505081526020016003820160009054906101000a900473ffffffffffffffffffffffffffffffffffffffff1673ffffffffffffffffffffffffffffffffffffffff1673ffffffffffffffffffffffffffffffffffffffff1681526020016004820160009054906101000a900473ffffffffffffffffffffffffffffffffffffffff1673ffffffffffffffffffffffffffffffffffffffff1673ffffffffffffffffffffffffffffffffffffffff168152602001600582018054600181600116156101000203166002900480601f0160208091040260200160405190810160405280929190818152602001828054600181600116156101000203166002900480156105935780601f1061056857610100808354040283529160200191610593565b820191906000526020600020905b81548152906001019060200180831161057657829003601f168201915b50505050508152602001600682018054600181600116156101000203166002900480601f0160208091040260200160405190810160405280929190818152602001828054600181600116156101000203166002900480156106355780601f1061060a57610100808354040283529160200191610635565b820191906000526020600020905b81548152906001019060200180831161061857829003601f168201915b505050505081525050838361ffff1681518110151561065057fe5b906020019060200201819052505b5b8080600101915050610296565b508192505050919050565b6000816040516020018082805190602001908083835b6020831015156106b2578051825260208201915060208101905060208303925061068d565b6001836020036101000a03801982511681845116808217855250505050505090500191505060405160208183030381529060405280519060200120836040516020018082805190602001908083835b6020831015156107265780518252602082019150602081019050602083039250610701565b6001836020036101000a0380198251168184511680821785525050505050509050019150506040516020818303038152906040528051906020012014905092915050565b6001602052806000526040600020600091509050806000015490806001015490806002018054600181600116156101000203166002900480601f0160208091040260200160405190810160405280929190818152602001828054600181600116156101000203166002900480156108225780601f106107f757610100808354040283529160200191610822565b820191906000526020600020905b81548152906001019060200180831161080557829003601f168201915b5050505050908060030160009054906101000a900473ffffffffffffffffffffffffffffffffffffffff16908060040160009054906101000a900473ffffffffffffffffffffffffffffffffffffffff1690806005018054600181600116156101000203166002900480601f01602080910402602001604051908101604052809291908181526020018280546001816001161561010002031660029004801561090c5780601f106108e15761010080835404028352916020019161090c565b820191906000526020600020905b8154815290600101906020018083116108ef57829003601f168201915b505050505090806006018054600181600116156101000203166002900480601f0160208091040260200160405190810160405280929190818152602001828054600181600116156101000203166002900480156109aa5780601f1061097f576101008083540402835291602001916109aa565b820191906000526020600020905b81548152906001019060200180831161098d57829003601f168201915b5050505050905087565b6060600080905060008090506000600190505b600160005401811015610aa757610a8c85600160008481526020019081526020016000206005018054600181600116156101000203166002900480601f016020809104026020016040519081016040528092919081815260200182805460018160011615610100020316600290048015610a825780601f10610a5757610100808354040283529160200191610a82565b820191906000526020600020905b815481529060010190602001808311610a6557829003601f168201915b5050505050610677565b15610a9a5782806001019350505b80806001019150506109c7565b5060608261ffff16604051908082528060200260200182016040528015610ae857816020015b610ad561176d565b815260200190600190039081610acd5790505b5090506000600190505b600160005401811015610eb657610bb786600160008481526020019081526020016000206005018054600181600116156101000203166002900480601f016020809104026020016040519081016040528092919081815260200182805460018160011615610100020316600290048015610bad5780601f10610b8257610100808354040283529160200191610bad565b820191906000526020600020905b815481529060010190602001808311610b9057829003601f168201915b5050505050610677565b15610ea9576001600082815260200190815260200160002060e060405190810160405290816000820154815260200160018201548152602001600282018054600181600116156101000203166002900480601f016020809104026020016040519081016040528092919081815260200182805460018160011615610100020316600290048015610c885780601f10610c5d57610100808354040283529160200191610c88565b820191906000526020600020905b815481529060010190602001808311610c6b57829003601f168201915b505050505081526020016003820160009054906101000a900473ffffffffffffffffffffffffffffffffffffffff1673ffffffffffffffffffffffffffffffffffffffff1673ffffffffffffffffffffffffffffffffffffffff1681526020016004820160009054906101000a900473ffffffffffffffffffffffffffffffffffffffff1673ffffffffffffffffffffffffffffffffffffffff1673ffffffffffffffffffffffffffffffffffffffff168152602001600582018054600181600116156101000203166002900480601f016020809104026020016040519081016040528092919081815260200182805460018160011615610100020316600290048015610dd65780601f10610dab57610100808354040283529160200191610dd6565b820191906000526020600020905b815481529060010190602001808311610db957829003601f168201915b50505050508152602001600682018054600181600116156101000203166002900480601f016020809104026020016040519081016040528092919081815260200182805460018160011615610100020316600290048015610e785780601f10610e4d57610100808354040283529160200191610e78565b820191906000526020600020905b815481529060010190602001808311610e5b57829003601f168201915b505050505081525050828461ffff16815181101515610e9357fe5b9060200190602002018190525082806001019350505b8080600101915050610af2565b50809350505050919050565b60005481565b6000808154809291906001019190505550610f18816040805190810160405280600681526020017f4661726d65720000000000000000000000000000000000000000000000000000815250610677565b1561109b5760e0604051908101604052806000548152602001428152602001610f3f611629565b81526020013373ffffffffffffffffffffffffffffffffffffffff1681526020018473ffffffffffffffffffffffffffffffffffffffff16815260200182815260200183815250600160008054815260200190815260200160002060008201518160000155602082015181600101556040820151816002019080519060200190610fca9291906117d7565b5060608201518160030160006101000a81548173ffffffffffffffffffffffffffffffffffffffff021916908373ffffffffffffffffffffffffffffffffffffffff16021790555060808201518160040160006101000a81548173ffffffffffffffffffffffffffffffffffffffff021916908373ffffffffffffffffffffffffffffffffffffffff16021790555060a08201518160050190805190602001906110759291906117d7565b5060c08201518160060190805190602001906110929291906117d7565b50905050611349565b6000600190505b600160005401811015611347576001600082815260200190815260200160002060040160009054906101000a900473ffffffffffffffffffffffffffffffffffffffff1673ffffffffffffffffffffffffffffffffffffffff163373ffffffffffffffffffffffffffffffffffffffff16141561133a5760e0604051908101604052806000548152602001428152602001600160008481526020019081526020016000206002018054600181600116156101000203166002900480601f0160208091040260200160405190810160405280929190818152602001828054600181600116156101000203166002900480156111dd5780601f106111b2576101008083540402835291602001916111dd565b820191906000526020600020905b8154815290600101906020018083116111c057829003601f168201915b505050505081526020013373ffffffffffffffffffffffffffffffffffffffff1681526020018573ffffffffffffffffffffffffffffffffffffffff1681526020018381526020018481525060016000805481526020019081526020016000206000820151816000015560208201518160010155604082015181600201908051906020019061126d9291906117d7565b5060608201518160030160006101000a81548173ffffffffffffffffffffffffffffffffffffffff021916908373ffffffffffffffffffffffffffffffffffffffff16021790555060808201518160040160006101000a81548173ffffffffffffffffffffffffffffffffffffffff021916908373ffffffffffffffffffffffffffffffffffffffff16021790555060a08201518160050190805190602001906113189291906117d7565b5060c08201518160060190805190602001906113359291906117d7565b509050505b80806001019150506110a2565b505b505050565b60606000600190505b6001600054018161ffff1610156115ea57611424600160008361ffff1681526020019081526020016000206002018054600181600116156101000203166002900480601f0160208091040260200160405190810160405280929190818152602001828054600181600116156101000203166002900480156114195780601f106113ee57610100808354040283529160200191611419565b820191906000526020600020905b8154815290600101906020018083116113fc57829003601f168201915b505050505084610677565b801561151d575061151c600160008361ffff1681526020019081526020016000206005018054600181600116156101000203166002900480601f0160208091040260200160405190810160405280929190818152602001828054600181600116156101000203166002900480156114dc5780601f106114b1576101008083540402835291602001916114dc565b820191906000526020600020905b8154815290600101906020018083116114bf57829003601f168201915b50505050506040805190810160405280600681526020017f4661726d65720000000000000000000000000000000000000000000000000000815250610677565b5b156115dd57600160008261ffff1681526020019081526020016000206006018054600181600116156101000203166002900480601f0160208091040260200160405190810160405280929190818152602001828054600181600116156101000203166002900480156115d05780601f106115a5576101008083540402835291602001916115d0565b820191906000526020600020905b8154815290600101906020018083116115b357829003601f168201915b5050505050915050611624565b8080600101915050611357565b506040805190810160405280600981526020017f6e6f7420666f756e64000000000000000000000000000000000000000000000081525090505b919050565b60608060206040519080825280601f01601f1916602001820160405280156116605781602001600182028038833980820191505090505b50905060004233604051602001808381526020018273ffffffffffffffffffffffffffffffffffffffff1673ffffffffffffffffffffffffffffffffffffffff166c01000000000000000000000000028152601401925050506040516020818303038152906040528051906020012060019004905060008090505b60208110156117645760ff82167f010000000000000000000000000000000000000000000000000000000000000002838281518110151561171857fe5b9060200101907effffffffffffffffffffffffffffffffffffffffffffffffffffffffffffff1916908160001a905350600882908060020a8204915050915080806001019150506116db565b50819250505090565b60e060405190810160405280600081526020016000815260200160608152602001600073ffffffffffffffffffffffffffffffffffffffff168152602001600073ffffffffffffffffffffffffffffffffffffffff16815260200160608152602001606081525090565b828054600181600116156101000203166002900490600052602060002090601f016020900481019282601f1061181857805160ff1916838001178555611846565b82800160010185558215611846579182015b8281111561184557825182559160200191906001019061182a565b5b5090506118539190611857565b5090565b61187991905b8082111561187557600081600090555060010161185d565b5090565b90565b60006118888235611dda565b905092915050565b600082601f83011215156118a357600080fd5b81356118b66118b182611d2b565b611cfe565b915080825260208301602083018583830111156118d257600080fd5b6118dd838284611df6565b50505092915050565b60006118f28235611dec565b905092915050565b60008060006060848603121561190f57600080fd5b600061191d8682870161187c565b935050602084013567ffffffffffffffff81111561193a57600080fd5b61194686828701611890565b925050604084013567ffffffffffffffff81111561196357600080fd5b61196f86828701611890565b9150509250925092565b60006020828403121561198b57600080fd5b600082013567ffffffffffffffff8111156119a557600080fd5b6119b184828501611890565b91505092915050565b600080604083850312156119cd57600080fd5b600083013567ffffffffffffffff8111156119e757600080fd5b6119f385828601611890565b925050602083013567ffffffffffffffff811115611a1057600080fd5b611a1c85828601611890565b9150509250929050565b600060208284031215611a3857600080fd5b6000611a46848285016118e6565b91505092915050565b611a5881611d92565b82525050565b6000611a6982611d64565b80845260208401935083602082028501611a8285611d57565b60005b84811015611abb578383038852611a9d838351611b47565b9250611aa882611d85565b9150602088019750600181019050611a85565b508196508694505050505092915050565b611ad581611da4565b82525050565b6000611ae682611d7a565b808452611afa816020860160208601611e05565b611b0381611e38565b602085010191505092915050565b6000611b1c82611d6f565b808452611b30816020860160208601611e05565b611b3981611e38565b602085010191505092915050565b600060e083016000830151611b5f6000860182611bf1565b506020830151611b726020860182611bf1565b5060408301518482036040860152611b8a8282611b11565b9150506060830151611b9f6060860182611a4f565b506080830151611bb26080860182611a4f565b5060a083015184820360a0860152611bca8282611b11565b91505060c083015184820360c0860152611be48282611b11565b9150508091505092915050565b611bfa81611dd0565b82525050565b60006020820190508181036000830152611c1a8184611a5e565b905092915050565b6000602082019050611c376000830184611acc565b92915050565b60006020820190508181036000830152611c578184611adb565b905092915050565b6000602082019050611c746000830184611bf1565b92915050565b600060e082019050611c8f600083018a611bf1565b611c9c6020830189611bf1565b8181036040830152611cae8188611b11565b9050611cbd6060830187611a4f565b611cca6080830186611a4f565b81810360a0830152611cdc8185611b11565b905081810360c0830152611cf08184611b11565b905098975050505050505050565b6000604051905081810181811067ffffffffffffffff82111715611d2157600080fd5b8060405250919050565b600067ffffffffffffffff821115611d4257600080fd5b601f19601f8301169050602081019050919050565b6000602082019050919050565b600081519050919050565b600081519050919050565b600081519050919050565b6000602082019050919050565b6000611d9d82611db0565b9050919050565b60008115159050919050565b600073ffffffffffffffffffffffffffffffffffffffff82169050919050565b6000819050919050565b6000611de582611db0565b9050919050565b6000819050919050565b82818337600083830152505050565b60005b83811015611e23578082015181840152602081019050611e08565b83811115611e32576000848401525b50505050565b6000601f19601f830116905091905056fea265627a7a7230582009fb6ad85fc65dd25ef4dbc60440dd90126e0dd06a5be162024e18516d7072386c6578706572696d656e74616cf50037",
  "source": "pragma solidity >=0.4.22 <0.9.0;\npragma experimental ABIEncoderV2;\n\ncontract VeggieContract {\n  uint public id;\n\n  string constant farmerStage = \"Farmer\";\n  string constant factoryStage = \"Factory\";\n  string constant distributorStage = \"Distributor\";\n  string constant retailerStage = \"Retailer\";\n  string constant customerStage = \"Customer\";\n\n\n  mapping(uint => Veggie) public veggies;\n\n  struct Veggie {\n    uint id;\n    uint256 created;\n    string consignment;\n    address from;\n    address to;\n    string stage;\n    string comment;\n  }\n\n  constructor() public {\n    id = 0;\n    // createNewVieggiesBlock('carrot', 'nice', 'farm');\n    // createNewVieggiesBlock('carrot', 'nicee', 'farm');\n  }\n\n  // utility function\n  function isEqualStrings(string memory a, string memory b) public pure returns (bool) {\n    return keccak256(abi.encodePacked(a)) == keccak256(abi.encodePacked(b));\n  }\n\n  // generate consignment for tracking\n  function getRandomConsignment() public view returns (string memory) {\n    bytes memory result = new bytes(32);\n    uint256 rand = uint256(keccak256(abi.encodePacked(block.timestamp, msg.sender)));\n    for (uint256 i = 0; i < 32; i++) {\n      result[i] = bytes1(uint8(rand & 0xff));\n      rand >>= 8;\n    }\n    return string(result);\n  }\n\n  function createNewVieggiesBlock (address _to, string memory _comment, string memory _stage) public {\n    id++;\n    if (isEqualStrings(_stage, farmerStage)) {\n      veggies[id] = Veggie(id, block.timestamp, getRandomConsignment(), msg.sender, _to, _stage, _comment);\n      return;\n    }\n    \n    for (uint256 i = 1; i < id + 1; i++) {\n      if (msg.sender == veggies[i].to) {\n        // get consigments that delivered to the owner\n        veggies[id] = Veggie(id, block.timestamp, veggies[i].consignment, msg.sender, _to, _stage, _comment);\n      }\n    }\n  }\n\n  function getVeggieBlocksWithStage(string memory _stage) public view returns (Veggie[] memory) {\n    uint16 count = 0;\n    uint16 stageCount = 0;\n\n    for (uint256 i = 1; i < id + 1; i++) {\n      if (isEqualStrings(_stage, veggies[i].stage)) {\n        // get all matching stage blocks\n        count++;\n      }\n    }\n\n\n    Veggie[] memory res = new Veggie[](count);\n    for (uint256 i = 1; i < id + 1; i++) {\n      if (isEqualStrings(_stage, veggies[i].stage)) {\n        res[stageCount] = veggies[i];\n        stageCount++;\n      }\n    }\n\n    return res;\n  }\n\n  function getVeggieStageByConsignment(string memory _consignment) public view returns (Veggie[] memory) {\n    Veggie[] memory res = new Veggie[](5);\n\n    uint16 count = 0;\n    for (uint16 i = 1; i < id + 1; i++) {\n      if (isEqualStrings(veggies[i].consignment, _consignment)) {\n        // same consignment, add to result transaction\n        if (count < 5) {\n          res[count] = veggies[i];\n        }\n      }\n    }\n\n    return res;\n  }\n\n  function getCommentFromFarmerByConsignment(string memory _consignment) public view returns (string memory) {\n    for (uint16 i = 1; i < id + 1; i++) {\n      if (isEqualStrings(veggies[i].consignment, _consignment) && isEqualStrings(veggies[i].stage, farmerStage)) {\n        return veggies[i].comment;\n      }\n    }\n\n    return \"not found\";\n  }\n}",
  "sourcePath": "/home/watermelon/pgs221/NetworkSecurity/source/blockchain-and-vegetable-production-supply-chain/blockchain/contracts/VeggieContract.sol",
  "compiler": {
    "name": "solc",
    "version": "0.5.0+commit.1d4f565a.Emscripten.clang"
  },
  "schemaVersion": "3.0.1",
  "updatedAt": "2023-04-14T05:58:14.302Z",
  "devdoc": {
    "methods": {}
  },
  "userdoc": {
    "methods": {}
  }
}