{
  "contractName": "VeggieContract",
  "abi": [
    {
      "constant": true,
      "inputs": [
        {
          "name": "",
          "type": "uint256"
        }
      ],
      "name": "veggies",
      "outputs": [
        {
          "name": "id",
          "type": "uint256"
        },
        {
          "name": "created",
          "type": "uint256"
        },
        {
          "name": "consignment",
          "type": "string"
        },
        {
          "name": "from",
          "type": "address"
        },
        {
          "name": "to",
          "type": "address"
        },
        {
          "name": "stage",
          "type": "string"
        },
        {
          "name": "comment",
          "type": "string"
        }
      ],
      "payable": false,
      "stateMutability": "view",
      "type": "function",
      "signature": "0x6a7884f9"
    },
    {
      "constant": true,
      "inputs": [],
      "name": "id",
      "outputs": [
        {
          "name": "",
          "type": "uint256"
        }
      ],
      "payable": false,
      "stateMutability": "view",
      "type": "function",
      "signature": "0xaf640d0f"
    },
    {
      "inputs": [],
      "payable": false,
      "stateMutability": "nonpayable",
      "type": "constructor",
      "signature": "constructor"
    },
    {
      "constant": true,
      "inputs": [
        {
          "name": "a",
          "type": "string"
        },
        {
          "name": "b",
          "type": "string"
        }
      ],
      "name": "isEqualStrings",
      "outputs": [
        {
          "name": "",
          "type": "bool"
        }
      ],
      "payable": false,
      "stateMutability": "pure",
      "type": "function",
      "signature": "0x4ed648a3"
    },
    {
      "constant": true,
      "inputs": [],
      "name": "getRandomConsignment",
      "outputs": [
        {
          "name": "",
          "type": "string"
        }
      ],
      "payable": false,
      "stateMutability": "view",
      "type": "function",
      "signature": "0xfcb6d1eb"
    },
    {
      "constant": false,
      "inputs": [
        {
          "name": "_to",
          "type": "address"
        },
        {
          "name": "_comment",
          "type": "string"
        },
        {
          "name": "_stage",
          "type": "string"
        }
      ],
      "name": "createNewVieggiesBlock",
      "outputs": [],
      "payable": false,
      "stateMutability": "nonpayable",
      "type": "function",
      "signature": "0xc7a82bc3"
    },
    {
      "constant": true,
      "inputs": [
        {
          "name": "_stage",
          "type": "string"
        }
      ],
      "name": "getVeggieBlocksWithStage",
      "outputs": [
        {
          "components": [
            {
              "name": "id",
              "type": "uint256"
            },
            {
              "name": "created",
              "type": "uint256"
            },
            {
              "name": "consignment",
              "type": "string"
            },
            {
              "name": "from",
              "type": "address"
            },
            {
              "name": "to",
              "type": "address"
            },
            {
              "name": "stage",
              "type": "string"
            },
            {
              "name": "comment",
              "type": "string"
            }
          ],
          "name": "",
          "type": "tuple[]"
        }
      ],
      "payable": false,
      "stateMutability": "view",
      "type": "function",
      "signature": "0x7283e120"
    }
  ],
  "bytecode": "0x608060405234801561001057600080fd5b50600080819055506116ea806100276000396000f3fe608060405260043610610078576000357c0100000000000000000000000000000000000000000000000000000000900463ffffffff1680634ed648a31461007d5780636a7884f9146100ba5780637283e120146100fd578063af640d0f1461013a578063c7a82bc314610165578063fcb6d1eb1461018e575b600080fd5b34801561008957600080fd5b506100a4600480360361009f9190810190611221565b6101b9565b6040516100b19190611489565b60405180910390f35b3480156100c657600080fd5b506100e160048036036100dc919081019061128d565b6102ac565b6040516100f497969594939291906114e1565b60405180910390f35b34801561010957600080fd5b50610124600480360361011f91908101906111e0565b6104f6565b6040516101319190611467565b60405180910390f35b34801561014657600080fd5b5061014f610a04565b60405161015c91906114c6565b60405180910390f35b34801561017157600080fd5b5061018c60048036036101879190810190611161565b610a0a565b005b34801561019a57600080fd5b506101a3610e90565b6040516101b091906114a4565b60405180910390f35b6000816040516020018082805190602001908083835b6020831015156101f457805182526020820191506020810190506020830392506101cf565b6001836020036101000a03801982511681845116808217855250505050505090500191505060405160208183030381529060405280519060200120836040516020018082805190602001908083835b6020831015156102685780518252602082019150602081019050602083039250610243565b6001836020036101000a0380198251168184511680821785525050505050509050019150506040516020818303038152906040528051906020012014905092915050565b6001602052806000526040600020600091509050806000015490806001015490806002018054600181600116156101000203166002900480601f0160208091040260200160405190810160405280929190818152602001828054600181600116156101000203166002900480156103645780601f1061033957610100808354040283529160200191610364565b820191906000526020600020905b81548152906001019060200180831161034757829003601f168201915b5050505050908060030160009054906101000a900473ffffffffffffffffffffffffffffffffffffffff16908060040160009054906101000a900473ffffffffffffffffffffffffffffffffffffffff1690806005018054600181600116156101000203166002900480601f01602080910402602001604051908101604052809291908181526020018280546001816001161561010002031660029004801561044e5780601f106104235761010080835404028352916020019161044e565b820191906000526020600020905b81548152906001019060200180831161043157829003601f168201915b505050505090806006018054600181600116156101000203166002900480601f0160208091040260200160405190810160405280929190818152602001828054600181600116156101000203166002900480156104ec5780601f106104c1576101008083540402835291602001916104ec565b820191906000526020600020905b8154815290600101906020018083116104cf57829003601f168201915b5050505050905087565b6060600080905060008090506000600190505b6001600054018110156105e9576105ce85600160008481526020019081526020016000206005018054600181600116156101000203166002900480601f0160208091040260200160405190810160405280929190818152602001828054600181600116156101000203166002900480156105c45780601f10610599576101008083540402835291602001916105c4565b820191906000526020600020905b8154815290600101906020018083116105a757829003601f168201915b50505050506101b9565b156105dc5782806001019350505b8080600101915050610509565b5060608261ffff1660405190808252806020026020018201604052801561062a57816020015b610617610fd4565b81526020019060019003908161060f5790505b5090506000600190505b6001600054018110156109f8576106f986600160008481526020019081526020016000206005018054600181600116156101000203166002900480601f0160208091040260200160405190810160405280929190818152602001828054600181600116156101000203166002900480156106ef5780601f106106c4576101008083540402835291602001916106ef565b820191906000526020600020905b8154815290600101906020018083116106d257829003601f168201915b50505050506101b9565b156109eb576001600082815260200190815260200160002060e060405190810160405290816000820154815260200160018201548152602001600282018054600181600116156101000203166002900480601f0160208091040260200160405190810160405280929190818152602001828054600181600116156101000203166002900480156107ca5780601f1061079f576101008083540402835291602001916107ca565b820191906000526020600020905b8154815290600101906020018083116107ad57829003601f168201915b505050505081526020016003820160009054906101000a900473ffffffffffffffffffffffffffffffffffffffff1673ffffffffffffffffffffffffffffffffffffffff1673ffffffffffffffffffffffffffffffffffffffff1681526020016004820160009054906101000a900473ffffffffffffffffffffffffffffffffffffffff1673ffffffffffffffffffffffffffffffffffffffff1673ffffffffffffffffffffffffffffffffffffffff168152602001600582018054600181600116156101000203166002900480601f0160208091040260200160405190810160405280929190818152602001828054600181600116156101000203166002900480156109185780601f106108ed57610100808354040283529160200191610918565b820191906000526020600020905b8154815290600101906020018083116108fb57829003601f168201915b50505050508152602001600682018054600181600116156101000203166002900480601f0160208091040260200160405190810160405280929190818152602001828054600181600116156101000203166002900480156109ba5780601f1061098f576101008083540402835291602001916109ba565b820191906000526020600020905b81548152906001019060200180831161099d57829003601f168201915b505050505081525050828461ffff168151811015156109d557fe5b9060200190602002018190525082806001019350505b8080600101915050610634565b50809350505050919050565b60005481565b6000808154809291906001019190505550610a5a816040805190810160405280600681526020017f4661726d657200000000000000000000000000000000000000000000000000008152506101b9565b15610bdd5760e0604051908101604052806000548152602001428152602001610a81610e90565b81526020013373ffffffffffffffffffffffffffffffffffffffff1681526020018473ffffffffffffffffffffffffffffffffffffffff16815260200182815260200183815250600160008054815260200190815260200160002060008201518160000155602082015181600101556040820151816002019080519060200190610b0c92919061103e565b5060608201518160030160006101000a81548173ffffffffffffffffffffffffffffffffffffffff021916908373ffffffffffffffffffffffffffffffffffffffff16021790555060808201518160040160006101000a81548173ffffffffffffffffffffffffffffffffffffffff021916908373ffffffffffffffffffffffffffffffffffffffff16021790555060a0820151816005019080519060200190610bb792919061103e565b5060c0820151816006019080519060200190610bd492919061103e565b50905050610e8b565b6000600190505b600160005401811015610e89576001600082815260200190815260200160002060040160009054906101000a900473ffffffffffffffffffffffffffffffffffffffff1673ffffffffffffffffffffffffffffffffffffffff163373ffffffffffffffffffffffffffffffffffffffff161415610e7c5760e0604051908101604052806000548152602001428152602001600160008481526020019081526020016000206002018054600181600116156101000203166002900480601f016020809104026020016040519081016040528092919081815260200182805460018160011615610100020316600290048015610d1f5780601f10610cf457610100808354040283529160200191610d1f565b820191906000526020600020905b815481529060010190602001808311610d0257829003601f168201915b505050505081526020013373ffffffffffffffffffffffffffffffffffffffff1681526020018573ffffffffffffffffffffffffffffffffffffffff16815260200183815260200184815250600160008054815260200190815260200160002060008201518160000155602082015181600101556040820151816002019080519060200190610daf92919061103e565b5060608201518160030160006101000a81548173ffffffffffffffffffffffffffffffffffffffff021916908373ffffffffffffffffffffffffffffffffffffffff16021790555060808201518160040160006101000a81548173ffffffffffffffffffffffffffffffffffffffff021916908373ffffffffffffffffffffffffffffffffffffffff16021790555060a0820151816005019080519060200190610e5a92919061103e565b5060c0820151816006019080519060200190610e7792919061103e565b509050505b8080600101915050610be4565b505b505050565b60608060206040519080825280601f01601f191660200182016040528015610ec75781602001600182028038833980820191505090505b50905060004233604051602001808381526020018273ffffffffffffffffffffffffffffffffffffffff1673ffffffffffffffffffffffffffffffffffffffff166c01000000000000000000000000028152601401925050506040516020818303038152906040528051906020012060019004905060008090505b6020811015610fcb5760ff82167f0100000000000000000000000000000000000000000000000000000000000000028382815181101515610f7f57fe5b9060200101907effffffffffffffffffffffffffffffffffffffffffffffffffffffffffffff1916908160001a905350600882908060020a820491505091508080600101915050610f42565b50819250505090565b60e060405190810160405280600081526020016000815260200160608152602001600073ffffffffffffffffffffffffffffffffffffffff168152602001600073ffffffffffffffffffffffffffffffffffffffff16815260200160608152602001606081525090565b828054600181600116156101000203166002900490600052602060002090601f016020900481019282601f1061107f57805160ff19168380011785556110ad565b828001600101855582156110ad579182015b828111156110ac578251825591602001919060010190611091565b5b5090506110ba91906110be565b5090565b6110e091905b808211156110dc5760008160009055506001016110c4565b5090565b90565b60006110ef8235611641565b905092915050565b600082601f830112151561110a57600080fd5b813561111d61111882611592565b611565565b9150808252602083016020830185838301111561113957600080fd5b61114483828461165d565b50505092915050565b60006111598235611653565b905092915050565b60008060006060848603121561117657600080fd5b6000611184868287016110e3565b935050602084013567ffffffffffffffff8111156111a157600080fd5b6111ad868287016110f7565b925050604084013567ffffffffffffffff8111156111ca57600080fd5b6111d6868287016110f7565b9150509250925092565b6000602082840312156111f257600080fd5b600082013567ffffffffffffffff81111561120c57600080fd5b611218848285016110f7565b91505092915050565b6000806040838503121561123457600080fd5b600083013567ffffffffffffffff81111561124e57600080fd5b61125a858286016110f7565b925050602083013567ffffffffffffffff81111561127757600080fd5b611283858286016110f7565b9150509250929050565b60006020828403121561129f57600080fd5b60006112ad8482850161114d565b91505092915050565b6112bf816115f9565b82525050565b60006112d0826115cb565b808452602084019350836020820285016112e9856115be565b60005b848110156113225783830388526113048383516113ae565b925061130f826115ec565b91506020880197506001810190506112ec565b508196508694505050505092915050565b61133c8161160b565b82525050565b600061134d826115e1565b80845261136181602086016020860161166c565b61136a8161169f565b602085010191505092915050565b6000611383826115d6565b80845261139781602086016020860161166c565b6113a08161169f565b602085010191505092915050565b600060e0830160008301516113c66000860182611458565b5060208301516113d96020860182611458565b50604083015184820360408601526113f18282611378565b915050606083015161140660608601826112b6565b50608083015161141960808601826112b6565b5060a083015184820360a08601526114318282611378565b91505060c083015184820360c086015261144b8282611378565b9150508091505092915050565b61146181611637565b82525050565b6000602082019050818103600083015261148181846112c5565b905092915050565b600060208201905061149e6000830184611333565b92915050565b600060208201905081810360008301526114be8184611342565b905092915050565b60006020820190506114db6000830184611458565b92915050565b600060e0820190506114f6600083018a611458565b6115036020830189611458565b81810360408301526115158188611378565b905061152460608301876112b6565b61153160808301866112b6565b81810360a08301526115438185611378565b905081810360c08301526115578184611378565b905098975050505050505050565b6000604051905081810181811067ffffffffffffffff8211171561158857600080fd5b8060405250919050565b600067ffffffffffffffff8211156115a957600080fd5b601f19601f8301169050602081019050919050565b6000602082019050919050565b600081519050919050565b600081519050919050565b600081519050919050565b6000602082019050919050565b600061160482611617565b9050919050565b60008115159050919050565b600073ffffffffffffffffffffffffffffffffffffffff82169050919050565b6000819050919050565b600061164c82611617565b9050919050565b6000819050919050565b82818337600083830152505050565b60005b8381101561168a57808201518184015260208101905061166f565b83811115611699576000848401525b50505050565b6000601f19601f830116905091905056fea265627a7a723058208c5c56f9430acee152aa39d8ede74adeef53d892a1ca6e66d94f7f175e8b36a36c6578706572696d656e74616cf50037",
  "source": "pragma solidity >=0.4.22 <0.9.0;\npragma experimental ABIEncoderV2;\n\ncontract VeggieContract {\n  uint public id;\n\n  string constant farmerStage = \"Farmer\";\n  string constant factoryStage = \"Factory\";\n  string constant distributorStage = \"Distributor\";\n  string constant retailerStage = \"Retailer\";\n  string constant customerStage = \"Customer\";\n\n\n  mapping(uint => Veggie) public veggies;\n\n  struct Veggie {\n    uint id;\n    uint256 created;\n    string consignment;\n    address from;\n    address to;\n    string stage;\n    string comment;\n  }\n\n  constructor() public {\n    id = 0;\n    // createNewVieggiesBlock('carrot', 'nice', 'farm');\n    // createNewVieggiesBlock('carrot', 'nicee', 'farm');\n  }\n\n  // utility function\n  function isEqualStrings(string memory a, string memory b) public pure returns (bool) {\n    return keccak256(abi.encodePacked(a)) == keccak256(abi.encodePacked(b));\n  }\n\n  // generate consignment for tracking\n  function getRandomConsignment() public view returns (string memory) {\n    bytes memory result = new bytes(32);\n    uint256 rand = uint256(keccak256(abi.encodePacked(block.timestamp, msg.sender)));\n    for (uint256 i = 0; i < 32; i++) {\n      result[i] = bytes1(uint8(rand & 0xff));\n      rand >>= 8;\n    }\n    return string(result);\n  }\n\n  function createNewVieggiesBlock (address _to, string memory _comment, string memory _stage) public {\n    id++;\n    if (isEqualStrings(_stage, farmerStage)) {\n      veggies[id] = Veggie(id, block.timestamp, getRandomConsignment(), msg.sender, _to, _stage, _comment);\n      return;\n    }\n    \n    for (uint256 i = 1; i < id + 1; i++) {\n      if (msg.sender == veggies[i].to) {\n        // get consigments that delivered to the owner\n        veggies[id] = Veggie(id, block.timestamp, veggies[i].consignment, msg.sender, _to, _stage, _comment);\n      }\n    }\n  }\n\n  function getVeggieBlocksWithStage(string memory _stage) public view returns (Veggie[] memory) {\n    uint16 count = 0;\n    uint16 stageCount = 0;\n\n    for (uint256 i = 1; i < id + 1; i++) {\n      if (isEqualStrings(_stage, veggies[i].stage)) {\n        // get all matching stage blocks\n        count++;\n      }\n    }\n\n\n    Veggie[] memory res = new Veggie[](count);\n    for (uint256 i = 1; i < id + 1; i++) {\n      if (isEqualStrings(_stage, veggies[i].stage)) {\n        res[stageCount] = veggies[i];\n        stageCount++;\n      }\n    }\n\n    return res;\n  }\n}",
  "sourcePath": "/home/watermelon/pgs221/NetworkSecurity/source/blockchain-and-vegetable-production-supply-chain/blockchain/contracts/VeggieContract.sol",
  "compiler": {
    "name": "solc",
    "version": "0.5.0+commit.1d4f565a.Emscripten.clang"
  },
  "schemaVersion": "3.0.1",
  "updatedAt": "2023-04-12T14:00:01.635Z",
  "devdoc": {
    "methods": {}
  },
  "userdoc": {
    "methods": {}
  }
}